:020000040800F2
:100000000000022001010008F9000008F9000008C2
:10001000F9000008F9000008F900000800000000DD
:10002000000000000000000000000000F9000008CF
:10003000F900000800000000F90000087500000841
:1000400080B584B000AF064BFB60FB681B68BB60EB
:10005000BB687B607B68984700BF1037BD4680BD9A
:100060000480000880B500AFFFF7EAFF00231846C0
:1000700080BD00BF80B400AF064BD3E90023501C05
:1000800043F10001034BC3E9000100BFBD465DF829
:10009000047B70471000002080B500AF024800F0DC
:1000A0007FF900BF80BD00BF8005000880B500AFAC
:1000B00005494FF47A7000F0EFF900F010FA00F003
:1000C00007FA00BF80BD00BF00BD010580B400AFCE
:1000D000044BD3E9002310461946BD465DF8047B66
:1000E000704700BF1000002080B500AFFFF7D4FFBD
:1000F000FFF7DCFF00BF80BD80B400AF00BFFDE7AD
:1001000080B582B000AF104B7B60104B3B6007E0C6
:100110007A68131D7B603B68191D396012681A608C
:100120003B680B4A9342F3D30A4B3B6004E03B68C5
:100130001A1D3A6000221A603B68074A9342F6D3C0
:10014000FFF790FF00BFFDE7F0050008000000206A
:100150000C000020100000201800002006282BD8DA
:10016000DFE800F0041E240A10161A00134BD3F81F
:100170000008C0F340607047104BD3F80008C0F38C
:10018000404070470D4BD3F80008C0F34000704763
:100190000A4BD3F87008F8E7084BD3F87408F4E773
:1001A000064BD3F80008C0F340707047034BD3F8F8
:1001B0000008C0F3C0607047002070470030024064
:1001C00008B502461046FFF7C9FF0028FAD008BD5F
:1001D00006280CD8DFE800F004282E0C12182000A6
:1001E000174AD2F8003843F08073C2F800387047DD
:1001F000134AD2F8003843F48033F6E7104AD2F8B5
:10020000003843F00103F0E70D4AD2F8703843F0AC
:100210000103C2F870387047094AD2F8743843F0C5
:100220000103C2F874387047054AD2F8003843F029
:100230008053DAE7024AD2F8003843F08063D4E70B
:100240000030024006280CD8DFE800F004282E0C0D
:1002500012182000174AD2F8003823F08073C2F831
:1002600000387047134AD2F8003823F48033F6E799
:10027000104AD2F8003823F00103F0E70D4AD2F813
:10028000703823F00103C2F870387047094AD2F879
:10029000743823F00103C2F874387047054AD2F865
:1002A000003823F08053DAE7024AD2F8003823F00E
:1002B0008063D4E700300240044AD2F8083823F0C3
:1002C00003030343C2F80838704700BF0030024000
:1002D000044AD2F8083823F4604343EA4033C2F8B2
:1002E0000838704700300240044AD2F8083823F436
:1002F000E05343EA8023C2F80838704700300240D8
:10030000044AD2F8083823F0F00343EA0013C2F895
:10031000083870470030024010B547F6C07404EA50
:10032000811400F03F001B0603F0706304431C437C
:10033000029B5208022B02F1FF324FEA024238BF01
:10034000022302F440321B0703F0E04314431C4332
:10035000014BC3F8044810BD0030024010B5029CA8
:10036000022C38BF022424071B0603F0706304F03C
:10037000E04452081C4300F03F0047F6C073013AC6
:1003800003EA8113044312041C4302F44032034B7A
:10039000144344F48004C3F8044810BD0030024004
:1003A00073B504460420FFF713FFFFF709FF002091
:1003B000FFF782FFE379012B04D10320FFF708FF49
:1003C000FFF7FEFE40F61C0000F0CCF8E07B00F0EA
:1003D000C1F8207BFFF794FF607BFFF785FFA07BD0
:1003E000FFF776FF0020FFF72DFFE679A57920784B
:1003F0006188227963790095012E2FD1FFF7AEFF36
:100400000020FFF7E5FEFFF7DBFEA3685A0528D5BD
:1004100000F078F8A3689B0526D500F087F8A0685F
:1004200000F064F80220FFF747FF124AD2F80838BC
:1004300003F00C03082BF9D10F4B22691A600F4B04
:1004400062691A600E4BA2691A60E379012B0ED122
:10045000042002B0BDE87040FFF7F4BEFFF75CFF78
:10046000CEE700F059F8D5E700F06AF8D7E702B018
:1004700070BD00BF003002400800002004000020D2
:10048000000000204FF0E02200F00400136923F088
:10049000040303431361704708B5B1FBF0F10B4B44
:1004A000994210D86FF07F43994226BFC9080020B7
:1004B0000420FFF7E7FF01394FF0E02321F07F41EF
:1004C0005961012008BD0020FCE700BFF7FFFF07CE
:1004D0004FF0E022136943F00203136170474FF0BD
:1004E000E022136943F0010313617047044AD2F814
:1004F000003C23F00F030343C2F8003C704700BFE9
:1005000000300240034AD2F8003C43F48063C2F852
:10051000003C704700300240034AD2F8003C23F40C
:100520008063C2F8003C704700300240034AD2F8B2
:10053000003C43F40073C2F8003C704700300240B6
:10054000034AD2F8003C23F40073C2F8003C704721
:1005500000300240024A136860F38F331360704723
:1005600000700040430903F1804303F50E3300F0AF
:100570001F001968012282400A431A607047000078
:1005800010005001040700000206000000040003F0
:1005900000BD010580DE800200BD0105080060008D
:1005A00002040000030600000004000300D8B805A0
:1005B000006CDC0200D8B8051000500102070000F2
:1005C0000506000000050403007A030A80DE8002AD
:1005D00000BD0105100068010208000005060000CA
:1005E000000504030095BA0A40A5AE02804A5D05E5
:1005F0000024F4000024F4000024F400FFFFFFFFB7
:10060000FFFFFFFFFFFFFFFFFFFFFFFFFFFFFFFFFA
:10061000FFFFFFFFFFFFFFFFFFFFFFFFFFFFFFFFEA
:10062000FFFFFFFFFFFFFFFFFFFFFFFFFFFFFFFFDA
:10063000FFFFFFFFFFFFFFFFFFFFFFFFFFFFFFFFCA
:1080000000800120C1840008B9840008B9840008F8
:10801000B9840008B9840008B98400080000000091
:108020000000000000000000000000009DC60008E5
:10803000B984000800000000B5C9000817CA00088C
:10804000B9840008B9840008B9840008B98400081C
:10805000B9840008B9840008B9840008B98400080C
:10806000B9840008B9840008B9840008B9840008FC
:10807000B9840008B9840008B9840008B9840008EC
:10808000B9840008B9840008B9840008B9840008DC
:10809000B9840008B9840008B9840008B9840008CC
:1080A000B9840008B9840008B9840008B9840008BC
:1080B000B9840008B9840008B9840008B9840008AC
:1080C000B9840008B9840008B9840008B98400089C
:1080D000B9840008B98400080D830008B984000839
:1080E00080B500AF40F2026005F0D7F84FF40053BE
:1080F00000220121074805F084F80C230022022108
:10810000054805F07EF80C220721034805F099F890
:1081100000BF80BD0008024000000240B0B584B03E
:1081200000AF00F0EBF8FFF7DBFF4FF4005117480A
:1081300005F05CF800F010F900F0D2F8C7E9020190
:1081400000F0CEF8D7E90223841A61EB0305C82CAE
:1081500075F100030BD34FF400510C4805F048F8BB
:1081600000F0BEF8C7E90201732000F046F900F004
:108170008EF90346002BE3D000F07AF90346FB7139
:10818000FB79184600F039F9DAE700BF0008024031
:1081900080B485B000AFF860B9607A60FB68BA68F7
:1081A0001A60FB6800229A60FB680022DA607B6834
:1081B0005A1EFB685A6000BF1437BD465DF8047B49
:1081C000704780B483B000AF78607B689A687B6842
:1081D000DB689A420CBF01230023DBB218460C3740
:1081E000BD465DF8047B704780B487B000AF78600F
:1081F0000B46FB707B689B687B617B68DB683B613F
:108200007B695A1C7B685B681340FB60FA687B697A
:108210009A4201D1002309E07B681A683B69134444
:10822000FA781A707B68FA68DA60012318461C37FE
:10823000BD465DF8047B704780B485B000AF7860C0
:1082400039607B689B68FB607B68DB68BB60BA68F1
:10825000FB689A4201D1002310E07B681A68FB6832
:1082600013441A783B681A70FB685A1C7B685B6879
:108270001340FB607B68FA689A6001231846143744
:10828000BD465DF8047B704780B400AF064BD3E970
:108290000023501C43F10001034BC3E9000100BF60
:1082A000BD465DF8047B70471000002080B500AF2C
:1082B000024805F021F900BF80BD00BF80D9000849
:1082C00080B500AF05494FF47A7005F0F5F905F077
:1082D00016FA05F00DFA00BF80BD00BF00BD010514
:1082E00080B400AF044BD3E9002310461946BD46C5
:1082F0005DF8047B704700BF1000002080B500AF20
:10830000FFF7D4FFFFF7DCFF00BF80BD80B582B070
:1083100000AF08210E4805F0BEF90346FB7120218D
:108320000B4805F0B8F90346BB71BB79002B02D1AD
:10833000FB79002B08D0064805F0A5F90346DBB20F
:1083400019460448FFF750FF00BF0837BD4680BDFF
:10835000004400401800002080B500AF802216497C
:108360001648FFF715FF40F6110004F096FF0C21A8
:10837000134805F063F90021114805F065F908215B
:108380000F4805F046F94FF4E1310D4805F036F994
:1083900000210B4805F04CF90121094805F042F98C
:1083A000074805F067F9262005F0B0F9044805F004
:1083B00051F900BF80BD00BF280000201800002038
:1083C0000044004080B584B000AF7860396000237D
:1083D000FB6009E07A68FB6813441B78184600F0DC
:1083E0000CF8FB680133FB60FA683B689A42F1D3F2
:1083F00000BF00BF1037BD4680BD80B582B000AF62
:108400000346FB71FB799BB21946034805F027F937
:1084100000BF0837BD4680BD0044004080B584B031
:1084200000AF786039603B68002B01D1002319E070
:108430000023FB6011E07A68FB68134419460B487F
:10844000FFF7FAFE034683F00103DBB2002B01D0F5
:10845000FB6807E0FB680133FB60FA683B689A42FF
:10846000E9D33B6818461037BD4680BD1800002090
:1084700080B582B000AF0023FB71FB1D01211846BF
:10848000FFF7CCFFFB7918460837BD4680BD80B5A5
:1084900000AF0848FFF795FE0346002B14BF0123E9
:1084A0000023DBB283F00103DBB203F00103DBB294
:1084B000184680BD1800002080B400AF00BFFDE763
:1084C00080B582B000AF104B7B60104B3B6007E083
:1084D0007A68131D7B603B68191D396012681A6049
:1084E0003B680B4A9342F3D30A4B3B6004E03B6882
:1084F0001A1D3A6000221A603B68074A9342F6D37D
:10850000FFF70CFE00BFFDE7F8D9000800000020CF
:108510001000002010000020E041002080B58AB04B
:1085200004AFF860B9607A603B607B689B001846D6
:1085300004F0FCFA38613B69002B13D0542004F09E
:10854000F5FA78617B69002B08D054220021786904
:1085500005F024F97B693A691A6305E0386904F08B
:108560001DFC01E000237B617B69002B0DD0002303
:1085700003937B6902937B6A01933B6A00933B6898
:108580007A68B968F86800F028F87B6918461837E7
:10859000BD4680BD80B588B002AFF860B9607A6032
:1085A0003B607B6A01933B6A00933B687A68B968D9
:1085B000F868FFF7B3FF38613B69002B05D03869D5
:1085C00000F093F801237B6102E04FF0FF337B6101
:1085D0007B6918461837BD4680BD80B588B000AFAE
:1085E000F860B9607A603B603B6B1A6B7B6803F1A3
:1085F0008043013B9B001344BB61BB6923F007032D
:10860000BB61BB6903F00703002B0BD04FF0500395
:1086100083F31188BFF36F8FBFF34F8F7B6100BF70
:1086200000BFFDE7BB68002B1ED00023FB6112E0FA
:10863000BA68FB69134419783A6BFB691344343305
:108640000A461A70BA68FB6913441B78002B06D0DF
:10865000FB690133FB61FB690F2BE9D900E000BF27
:108660003B6B002283F84320BB6A042B0BD94FF0ED
:10867000500383F31188BFF36F8FBFF34F8F3B61BC
:1086800000BF00BFFDE7BB6A042B01D90423BB6216
:108690003B6BBA6ADA623B6BBA6A5A643B6B04336F
:1086A000184603F043FA3B6B1833184603F03EFAC2
:1086B0003B6B3A6B1A61BB6AC3F105023B6B9A6173
:1086C0003B6B3A6B5A623A68F968B86903F084FF09
:1086D00002463B6B1A60FB6A002B02D0FB6A3A6BC6
:1086E0001A6000BF2037BD4680BD80B584B000AFA2
:1086F000786004F003F9404B1B6801333E4A136075
:108700003E4B1B68002B09D13C4A7B6813603A4BF7
:108710001B68012B10D100F061FF0DE0384B1B6886
:10872000002B09D1354B1B68DA6A7B68DB6A9A42F9
:1087300002D8324A7B681360324B1B680133314ADE
:1087400013607B68DB6A01229A402F4B1B6813433E
:108750002D4A13607B68DA6A2C4913469B00134448
:108760009B000B4404331B68FB607B68FA689A60CB
:10877000FB689A687B68DA60FB689B687A680432F9
:108780005A607B681A1DFB689A607B68DA6A134638
:108790009B0013449B001D4A1A447B685A617B6806
:1087A000DA6A1A4913469B0013449B000B441B686A
:1087B0007A68D26A591C154813469B0013449B00E3
:1087C0000344196004F0CCF80D4B1B68002B0ED04D
:1087D0000A4B1B68DA6A7B68DB6A9A4207D20C4B49
:1087E0004FF080521A60BFF34F8FBFF36F8F00BFFF
:1087F0001037BD4680BD00BF54010020A8000020F6
:1088000060010020700100205C010020AC0000200D
:1088100004ED00E080B58AB002AF0123FB613B4666
:1088200000221A605A609A60DA6000233B610023DC
:108830007B6111E01F4A7B69134419783A467B69D2
:1088400013440A461A703A467B6913441B78002B7E
:1088500006D07B6901337B617B690E2BEAD900E08E
:1088600000BF3A467B69134400221A700023BB61A3
:1088700015E0114B3B61BB699B00104A134439461C
:10888000019300230093002380223869FFF782FEC2
:10889000F861FB69012B06D1BB690133BB61BB6980
:1088A000002BE6DD00E000BFFB6918462037BD461F
:1088B00080BD00BF70D90008AD9500087801002088
:1088C00080B584B000AFFFF7A5FFF860FB68012B0F
:1088D00002D103F0BFF9F860FB68012B16D14FF00D
:1088E000500383F31188BFF36F8FBFF34F8FBB60CB
:1088F00000BF114B4FF0FF321A60104B01221A607B
:108900000F4B00221A6003F0EEFE0FE0FB68B3F19C
:10891000FF3F0BD14FF0500383F31188BFF36F8FEC
:10892000BFF34F8F7B6000BF00BFFDE7054B1B68A7
:1089300000BF1037BD4680BD7401002060010020DB
:10894000580100206CD9000880B582B000AF4FF00C
:10895000500383F31188BFF36F8FBFF34F8F7B609A
:1089600000BF044B00221A6003F0ACFF00BF0837C1
:10897000BD4680BD6001002080B400AF044B1B6881
:108980000133034A136000BFBD465DF8047B7047A6
:108990007C01002080B588B000AF0023FB6100237C
:1089A000BB6103F0ABFF00233B61754B1B68002BE1
:1089B0000BD14FF0500383F31188BFF36F8FBFF3D8
:1089C0004F8F3B6000BF00BFFDE76D4B1B68013B55
:1089D0006B4A13606A4B1B68002B40F0CA80694BDE
:1089E0001B68002B00F0C5808EE0674BDB68DB68FE
:1089F000FB61FB699B6AFB60FB69DB69FA69126AD0
:108A00009A60FB691B6AFA69D2695A60FB685A6806
:108A1000FB6918339A4203D1FB691A6AFB685A60F2
:108A2000FB6900229A62FB681B685A1EFB681A6089
:108A3000FB695B69BB60FB699B68FA69D2689A60F5
:108A4000FB69DB68FA6992685A60BB685A68FB691F
:108A500004339A4203D1FB69DA68BB685A60FB6948
:108A600000225A61BB681B685A1EBB681A60FB690A
:108A7000DB6A01229A40454B1B681343434A13604B
:108A8000FB69DA6A424913469B0013449B000B447E
:108A900004331B687B60FB697A689A607B689A681C
:108AA000FB69DA607B689B68FA6904325A60FB698B
:108AB0001A1D7B689A60FB69DA6A13469B001344AF
:108AC0009B00334A1A44FB695A61FB69DA6A3049F0
:108AD00013469B0013449B000B441B68FA69D26A3F
:108AE000591C2B4813469B0013449B0003441960F8
:108AF000FB69DA6A274B1B68DB6A9A4204D9264A6B
:108B00003B69012142F823101F4B1B68002B7FF4A7
:108B10006CAFFB69002B01D000F09DFD1F4B1B6863
:108B20007B617B69002B12D000F0BCF80346002B60
:108B300004D0194A3B69012142F823107B69013BAB
:108B40007B617B69002BEFD1144B00221A60124A23
:108B50003B6952F82330002B0BD00123BB610D4B36
:108B60001B680F4B4FF080521A60BFF34F8FBFF35B
:108B70006F8F03F0F5FEBB6918462037BD4680BDF8
:108B80007C01002054010020400100205C010020F5
:108B9000AC000020A8000020680100206401002033
:108BA00004ED00E080B483B000AF054B1B687B6030
:108BB0007B6818460C37BD465DF8047B704700BFE4
:108BC0005801002080B582B000AF03F06EFF002393
:108BD0007B60044B1B683B603B6818460837BD460A
:108BE00080BD00BF5801002080B400AF034B1B685C
:108BF0001846BD465DF8047B704700BF5401002055
:108C000080B485B000AF78607B68002B02D10E4B3A
:108C10001B6800E07B68FB60FB68002B0BD14FF00A
:108C2000500383F31188BFF36F8FBFF34F8FBB6087
:108C300000BF00BFFDE7FB68343318461437BD465C
:108C40005DF8047B704700BFA800002080B584B0A9
:108C500000AF7860114B1B68002B0BD04FF0500316
:108C600083F31188BFF36F8FBFF34F8FBB6000BFDB
:108C700000BFFDE7FFF780FE03F040FE084B1A68D7
:108C80007B681344064A136003F06AFEFFF782FE16
:108C9000F860FB6818461037BD4680BD7C01002097
:108CA0006401002080B58AB000AF00237B627F4B57
:108CB0001B68002B40F0EF807D4B1B6801333B624B
:108CC0007B4A3B6A13603B6A002B21D1794B1B68BE
:108CD0001B68002B0BD04FF0500383F31188BFF3B8
:108CE0006F8FBFF34F8F7B6000BF00BFFDE7714BFD
:108CF0001B68FB61704B1B686E4A13606E4AFB6910
:108D000013606E4B1B6801336C4A136000F0A3FCC8
:108D10006B4B1B683A6A9A42C0F0A880654B1B688F
:108D20001B68002B04D1664B4FF0FF321A609DE0A8
:108D3000604B1B68DB68DB68BB61BB695B687B61A0
:108D40003A6A7B699A4203D25D4A7B6913608DE07F
:108D5000BB695B693B61BB699B68BA69D2689A6011
:108D6000BB69DB68BA6992685A603B695A68BB693B
:108D700004339A4203D1BB69DA683B695A60BB6924
:108D800000225A613B691B685A1E3B691A60BB6925
:108D90009B6A002B1ED0BB699B6AFB60BB69DB69C9
:108DA000BA69126A9A60BB691B6ABA69D2695A6069
:108DB000FB685A68BB6918339A4203D1BB691A6AC7
:108DC000FB685A60BB6900229A62FB681B685A1EE6
:108DD000FB681A60BB69DB6A01229A40394B1B6849
:108DE0001343384A1360BB69DA6A374913469B005C
:108DF00013449B000B4404331B68BB60BB69BA6817
:108E00009A60BB689A68BB69DA60BB689B68BA699C
:108E100004325A60BB691A1DBB689A60BB69DA6A82
:108E200013469B0013449B00274A1A44BB695A61AE
:108E3000BB69DA6A244913469B0013449B000B4428
:108E40001B68BA69D26A591C1F4813469B00134419
:108E50009B0003441960BB69DA6A1C4B1B68DB6A20
:108E60009A427FF65BAF01237B6257E7174B1B6883
:108E7000DA6A154913469B0013449B000B441B6898
:108E8000012B01D901237B62114B1B68002B07D0FA
:108E900001237B6204E00F4B1B6801330D4A136012
:108EA0007B6A18462837BD4680BD00BF7C01002084
:108EB00058010020380100203C0100206C010020F6
:108EC000740100205C010020AC000020A8000020FC
:108ED000680100206401002080B487B000AF284BF7
:108EE0001B68002B03D0274B01221A6041E0254B61
:108EF00000221A60244B1B68FB60FB68B3FA83F303
:108F0000FB72FB7AC3F11F037B6120497A69134628
:108F10009B0013449B000B441B68002B0BD14FF0AC
:108F2000500383F31188BFF36F8FBFF34F8F7B60C4
:108F300000BF00BFFDE77A6913469B0013449B0006
:108F4000124A13443B613B695B685A683B695A604B
:108F50003B695A683B6908339A4203D13B69DA6836
:108F60003B695A603B695B68DB68094A1360084BE0
:108F70001B6800BF1C37BD465DF8047B704700BF0F
:108F80007C010020680100205C010020AC00002072
:108F9000A800002080B584B000AF786039607B689D
:108FA000002B0BD14FF0500383F31188BFF36F8F69
:108FB000BFF34F8FFB6000BF00BFFDE7074B1B688F
:108FC00018331946786802F0E2FD0121386801F093
:108FD0003BFB00BF1037BD4680BD00BFA80000208E
:108FE00080B588B000AFF860B9607A60FB68002B8C
:108FF0000BD14FF0500383F31188BFF36F8FBFF392
:109000004F8FBB6100BF00BFFDE71F4B1B68002BEC
:109010000BD14FF0500383F31188BFF36F8FBFF371
:109020004F8F7B6100BF00BFFDE7184B1B68BA681C
:1090300042F000429A61FB685B68FB61134B1B685E
:10904000FA69DA61114B1B68FA6992681A620F4B70
:109050001A68FB699B6818325A600C4B1B6803F155
:109060001802FB699A60094B1B68FA689A62FB68F0
:109070001B685A1CFB681A600121786801F0E4FA49
:1090800000BF2037BD4680BD7C010020A800002025
:1090900080B586B000AFF860B9607A60FB68002BDD
:1090A0000BD14FF0500383F31188BFF36F8FBFF3E1
:1090B0004F8F3B6100BF00BFFDE7FB685B687B61D2
:1090C000154B1B687A69DA61134B1B687A699268E1
:1090D0001A62114B1A687B699B6818325A600E4BF2
:1090E0001B6803F118027B699A600B4B1B68FA68D6
:1090F0009A62FB681B685A1CFB681A607B68002B2D
:1091000002D04FF0FF33BB607968B86801F09CFA79
:1091100000BF1837BD4680BDA800002080B48BB0CA
:1091200000AF78607B68DB68DB683B623B6A002BE2
:109130000BD14FF0500383F31188BFF36F8FBFF350
:109140004F8FFB6000BF00BFFDE73B6A9B6AFB617E
:109150003B6ADB693A6A126A9A603B6A1B6A3A6A3E
:10916000D2695A60FB695A683B6A18339A4203D144
:109170003B6A1A6AFB695A603B6A00229A62FB6981
:109180001B685A1EFB691A604B4B1B68002B60D191
:109190003B6A5B697B613B6A9B683A6AD2689A600A
:1091A0003B6ADB683A6A92685A607B695A683B6A34
:1091B00004339A4203D13B6ADA687B695A603B6A9E
:1091C00000225A617B691B685A1E7B691A603B6AE0
:1091D000DB6A01229A40394B1B681343374A1360FC
:1091E0003B6ADA6A364913469B0013449B000B44E2
:1091F00004331B683B613B6A3A699A603B699A6831
:109200003B6ADA603B699B683A6A04325A603B6A9F
:109210001A1D3B699A603B6ADA6A13469B00134445
:109220009B00274A1A443B6A5A613B6ADA6A24491E
:1092300013469B0013449B000B441B683A6AD26A96
:10924000591C1F4813469B0013449B00034419609C
:109250001BE01C4B5B68BB613B6ABA69DA61BB69A6
:109260009A683B6A1A62BB699B683A6A18325A600C
:109270003B6A03F11802BB699A603B6A114A9A6221
:10928000104B1B6801330F4A13603B6ADA6A0E4BBE
:109290001B68DB6A9A4205D901237B620B4B0122D2
:1092A0001A6001E000237B627B6A18462C37BD46BA
:1092B0005DF8047B704700BF7C0100205C0100204A
:1092C000AC00002040010020A80000206801002020
:1092D00080B489B000AF786039605A4B1B68002BAE
:1092E0000BD14FF0500383F31188BFF36F8FBFF39F
:1092F0004F8FFB6000BF00BFFDE73B6843F00042BB
:109300007B681A607B68DB68FB61FB69002B0BD113
:109310004FF0500383F31188BFF36F8FBFF34F8F6C
:10932000BB6000BF00BFFDE77B681B69BB617B685A
:109330005B687A6892689A607B689B687A68526812
:109340005A60BB695B687A689A4203D17B689A6805
:10935000BB695A607B6800221A61BB691B685A1E90
:10936000BB691A60FB695B697B61FB699B68FA6991
:10937000D2689A60FB69DB68FA6992685A607B6917
:109380005A68FB6904339A4203D1FB69DA687B6946
:109390005A60FB6900225A617B691B685A1E7B690F
:1093A0001A60FB69DB6A01229A40274B1B68134352
:1093B000254A1360FB69DA6A244913469B0013446B
:1093C0009B000B4404331B683B61FB693A699A605C
:1093D0003B699A68FB69DA603B699B68FA69043209
:1093E0005A60FB691A1D3B699A60FB69DA6A134689
:1093F0009B0013449B00154A1A44FB695A61FB69A0
:10940000DA6A124913469B0013449B000B441B6805
:10941000FA69D26A591C0D4813469B0013449B00FD
:1094200003441960FB69DA6A094B1B68DB6A9A42DC
:1094300002D9084B01221A6000BF2437BD465DF8EF
:10944000047B70477C0100205C010020AC00002000
:10945000A80000206801002080B584B000AF7860CB
:109460007B68002B0BD14FF0500383F31188BFF3BF
:109470006F8FBFF34F8FFB6000BF00BFFDE703F0AE
:109480003DFA074B1A687B681A60064B1A687B68BE
:109490005A6003F065FA00BF1037BD4680BD00BFBB
:1094A0006C0100205801002080B483B000AF7860C8
:1094B000064B1A687B681A60054B1A687B685A600D
:1094C00000BF0C37BD465DF8047B70476C0100207F
:1094D0005801002080B588B000AF786039607B68A3
:1094E000002B0BD14FF0500383F31188BFF36F8F24
:1094F000BFF34F8F3B6100BF00BFFDE73B68002B10
:109500000BD14FF0500383F31188BFF36F8FBFF37C
:109510004F8FFB6000BF00BFFDE703F0EFF91B4B6F
:109520001B68BB617B685B68BA69D31A7B617B6827
:109530001A68174B1B689A420AD07B685B68BA6945
:109540009A4205D30123FB613B6800221A6015E0B3
:109550003B681B687A699A420BD23B681A687B6940
:10956000D21A3B681A607868FFF79EFF0023FB6100
:1095700004E03B6800221A600123FB6103F0F0F96C
:10958000FB6918462037BD4680BD00BF580100204A
:109590006C01002080B400AF034B01221A6000BFB1
:1095A000BD465DF8047B70476801002080B582B03D
:1095B00000AF786000F048F8064B1B68012BF9D922
:1095C000054B4FF080521A60BFF34F8FBFF36F8F80
:1095D000F0E700BFAC00002004ED00E080B582B0F1
:1095E00000AF00237B600CE07A6813469B001344B5
:1095F0009B000F4A1344184602F078FA7B68013347
:109600007B607B68042BEFD90A4802F06FFA0A48A6
:1096100002F06CFA094802F069FA094B054A1A602F
:10962000084B054A1A6000BF0837BD4680BD00BF21
:10963000AC00002010010020240100204001002087
:10964000380100203C01002080B400AF00BFBD46BF
:109650005DF8047B704780B400AF0A4B1B681B6841
:10966000002B04D1084B4FF0FF321A6005E0054B88
:109670001B68DB681B68044A136000BFBD465DF8C9
:10968000047B7047380100207401002080B483B04F
:1096900000AF054B1B687B607B6818460C37BD46E6
:1096A0005DF8047B704700BFA800002080B485B03F
:1096B00000AF78600023FB607B68002B05DB7B68D4
:1096C000002B02DC044B1B68FB60FB681846143758
:1096D000BD465DF8047B7047A800002080B483B0CD
:1096E00000AF0B4B1B68002B02D101237B6008E00D
:1096F000084B1B68002B02D102237B6001E0002392
:109700007B607B6818460C37BD465DF8047B70476C
:10971000600100207C01002080B586B000AF786039
:109720007B683B6100237B617B68002B00F08980B4
:109730003B69DA6A454B1B68DB6A9A4278D23B691F
:109740009B69002B06DB414B1B68DB6AC3F10502FA
:109750003B699A613B6959693B69DA6A13469B0028
:1097600013449B003A4A1344994259D13B6904334C
:10977000184602F045FA0346002B0AD13B69DB6A22
:10978000012202FA03F3DA43324B1B681340314AD9
:1097900013602E4B1B68DA6A3B69DA623B69DB6A4D
:1097A00001229A402B4B1B6813432A4A13603B69E2
:1097B000DA6A274913469B0013449B000B44043389
:1097C0001B68FB603B69FA689A60FB689A683B69B2
:1097D000DA60FB689B683A6904325A603B691A1D7B
:1097E000FB689A603B69DA6A13469B0013449B004E
:1097F000174A1A443B695A613B69DA6A14491346AD
:109800009B0013449B000B441B683A69D26A591CA5
:109810000F4813469B0013449B000344196004E067
:109820000A4B1B68DA6A3B69DA6201237B6108E054
:109830003B695A6C054B1B68DB6A9A4201D20123D3
:109840007B617B6918461837BD4680BDA8000020A3
:10985000AC0000205C01002080B588B000AF7860CB
:109860007B68BB610023FB617B68002B00F090806C
:109870004A4B1B68BA699A420BD04FF0500383F3EE
:109880001188BFF36F8FBFF34F8F3B6100BF00BFE5
:10989000FDE7BB699B6C002B0BD14FF0500383F3AA
:1098A0001188BFF36F8FBFF34F8FFB6000BF00BF06
:1098B000FDE7BB699B6C5A1EBB699A64BB69DA6A97
:1098C000BB695B6C9A4263D0BB699B6C002B5FD118
:1098D000BB690433184602F093F90346002B0AD102
:1098E000BB69DB6A012202FA03F3DA432C4B1B68E3
:1098F00013402B4A1360BB695A6CBB69DA62BB69BF
:10990000DB6AC3F10502BB699A61BB69DB6A0122AC
:109910009A40234B1B681343214A1360BB69DA6AE0
:10992000204913469B0013449B000B4404331B68DF
:109930007B61BB697A699A607B699A68BB69DA6006
:109940007B699B68BA6904325A60BB691A1D7B69DE
:109950009A60BB69DA6A13469B0013449B00114A64
:109960001A44BB695A61BB69DA6A0E4913469B0007
:1099700013449B000B441B68BA69D26A591C0948FE
:1099800013469B0013449B00034419600123FB61B1
:10999000FB6918462037BD4680BD00BFA8000020E7
:1099A0005C010020AC00002080B58AB000AF786078
:1099B00039607B683B620123FB617B68002B00F010
:1099C000A5803B6A9B6C002B0BD14FF0500383F3B7
:1099D0001188BFF36F8FBFF34F8F3B6100BF00BF94
:1099E000FDE73B6A5B6C3A689A4202D93B687B624E
:1099F00002E03B6A5B6C7B623B6ADB6A7A6A9A4292
:109A000000F084803B6A9B6CFA699A427ED1414B9C
:109A10001B683A6A9A420BD14FF0500383F31188C6
:109A2000BFF36F8FBFF34F8FFB6000BF00BFFDE739
:109A30003B6ADB6ABB613B6A7A6ADA623B6A9B69B2
:109A4000002B04DB7B6AC3F105023B6A9A613B6A27
:109A50005969BA6913469B0013449B002E4A13446C
:109A6000994253D13B6A0433184602F0C9F80346C1
:109A7000002B0AD13B6ADB6A012202FA03F3DA43C4
:109A8000264B1B681340254A13603B6ADB6A0122A0
:109A90009A40224B1B681343204A13603B6ADA6AE0
:109AA0001D4913469B0013449B000B4404331B6861
:109AB0007B613B6A7A699A607B699A683B6ADA6083
:109AC0007B699B683A6A04325A603B6A1A1D7B695B
:109AD0009A603B6ADA6A13469B0013449B000E4A65
:109AE0001A443B6A5A613B6ADA6A0B4913469B0087
:109AF00013449B000B441B683A6AD26A591C0648FF
:109B000013469B0013449B000344196000BF283791
:109B1000BD4680BDA8000020AC0000205C010020F4
:109B200080B483B000AF094B1B689B697B60074B17
:109B30001B68DA6A054B1B68C2F105029A617B68F3
:109B400018460C37BD465DF8047B7047A80000201E
:109B500080B483B000AF094B1B687B607B68002B2F
:109B600004D07B689B6C5A1C7B689A647B6818469F
:109B70000C37BD465DF8047B704700BFA80000208D
:109B800080B588B000AFF860B9607A600023FB61EF
:109B9000FB68002B0BD04FF0500383F31188BFF309
:109BA0006F8FBFF34F8F3B6100BF00BFFDE7364BA8
:109BB0001A68FB6812339B0013445B68002B32D198
:109BC0007B68002B2FD0FEF7D7FE02F097FE2E4BBE
:109BD0001A68FB6812339B0013445B68002B08D1A2
:109BE000294B1A68FB681344503301221A70012371
:109BF000FB6102F0B5FEFB69012B03D101217868FE
:109C000000F022FDFEF7C6FEB861FB69012B0AD108
:109C1000BB69002B07D11D4B4FF080521A60BFF378
:109C20004F8FBFF36F8F02F069FE174B1A68FB6806
:109C300012339B0013445B687B617B69002B14D05B
:109C4000BB68002B08D0104B1A68FB6812339B00CE
:109C5000134400225A6008E00B4B19687B695A1EB6
:109C6000FB6812339B000B445A60074B1A68FB6871
:109C70001344503300221A7002F072FE7B691846BA
:109C80002037BD4680BD00BFA800002004ED00E0E5
:109C900080B588B000AFF860B9607A603B6000239F
:109CA000BB61FB68002B0BD04FF0500383F311888E
:109CB000BFF36F8FBFF34F8F3B6100BF00BFFDE766
:109CC000414B1A68FB68134450331B78DBB2022BFC
:109CD00041D0BB6A002B3ED0FEF74EFE02F00EFED6
:109CE000394B1A68FB68134450331B78DBB2022BE4
:109CF00017D0354B1A68FB6812339B001344596820
:109D0000BB68DB431940FB6812339B001344596066
:109D10002D4B1A68FB681344503301221A7001233B
:109D2000BB6102F01DFEBB69012B03D10121B86AA2
:109D300000F08AFCFEF72EFE7861BB69012B0AD188
:109D40007B69002B07D1214B4FF080521A60BFF383
:109D50004F8FBFF36F8F02F0D1FD3B68002B08D00F
:109D6000194B1A68FB6812339B0013445A683B680E
:109D70001A60154B1A68FB68134450331B78DBB22A
:109D8000022B02D00023FB6110E00F4B1A68FB6826
:109D900012339B00134459687B68DB431940FB680E
:109DA00012339B00134459600123FB61064B1A6870
:109DB000FB681344503300221A7002F0D1FDFB6996
:109DC00018462037BD4680BDA800002004ED00E005
:109DD00080B58EB000AFF860B9607A60FB70012387
:109DE0007B63BB68002B0BD04FF0500383F31188CB
:109DF000BFF36F8FBFF34F8F3B6200BF00BFFDE724
:109E0000FB68002B0BD14FF0500383F31188BFF395
:109E10006F8FBFF34F8FFB6100BF00BFFDE7FB6893
:109E20003B6302F06BFD3B6C002B07D03A6BBB68C9
:109E300012339B0013445A683B6C1A603A6BBB6840
:109E4000134450331B7887F82F303A6BBB681344A8
:109E5000503302221A70FB78042B41D801A252F829
:109E600023F000BF019F0008799E0008979E00081C
:109E7000B39E0008C39E00083A6BBB6812339B0078
:109E800013445A687B681A43396BBB6812339B00D2
:109E90000B445A6037E03A6BBB6812339B001344A3
:109EA0005B685A1C396BBB6812339B000B445A60C9
:109EB00029E03A6BBB6812339B0013447A685A60FE
:109EC00021E097F82F30022B07D03A6BBB68123392
:109ED0009B0013447A685A6015E000237B6312E00C
:109EE0004E4B1B68002B0DD04FF0500383F31188AD
:109EF000BFF36F8FBFF34F8FBB6100BF00BFFDE7A4
:109F000000BF00E000BF97F82F30012B7ED13B6BE4
:109F10005B69BB623B6B9B683A6BD2689A603B6B38
:109F2000DB683A6B92685A60BB6A5A683B6B0433D1
:109F30009A4203D13B6BDA68BB6A5A603B6B0022E2
:109F40005A61BB6A1B685A1EBB6A1A603B6BDB6AAC
:109F500001229A40324B1B681343314A13603B6B1A
:109F6000DA6A304913469B0013449B000B440433C8
:109F70001B687B623B6B7A6A9A607B6A9A683B6B70
:109F8000DA607B6A9B683A6B04325A603B6B1A1D3D
:109F90007B6A9A603B6BDA6A13469B0013449B0012
:109FA000204A1A443B6B5A613B6BDA6A1D491346DF
:109FB0009B0013449B000B441B683A6BD26A591CEC
:109FC000184813469B0013449B00034419603B6BE5
:109FD0009B6A002B0BD04FF0500383F31188BFF323
:109FE0006F8FBFF34F8F7B6100BF00BFFDE70E4B4C
:109FF0001B68DA6A3B6BDB6A9A4207D20B4B4FF065
:10A0000080521A60BFF34F8FBFF36F8F02F0A8FC2E
:10A010007B6B18463837BD4680BD00BF5801002015
:10A020005C010020AC000020A800002004ED00E04E
:10A0300080B592B000AFF860B9607A60FB70012320
:10A040007B64FB68002B0BD14FF0500383F3118826
:10A05000BFF36F8FBFF34F8FBB6200BF00BFFDE741
:10A06000BB68002B0BD04FF0500383F31188BFF374
:10A070006F8FBFF34F8F7B6200BF00BFFDE702F021
:10A0800014FDFB683B64EFF311824FF0500383F340
:10A090001188BFF36F8FBFF34F8F3A62FB613B6A4A
:10A0A000FB633B6D002B07D03A6CBB6812339B00FF
:10A0B00013445A683B6D1A603A6CBB6813445033C2
:10A0C0001B7887F83B303A6CBB681344503302224C
:10A0D0001A70FB78042B41D801A252F823F000BF7C
:10A0E0007DA10008F5A0000813A100082FA1000819
:10A0F0003FA100083A6CBB6812339B0013445A68B6
:10A100007B681A43396CBB6812339B000B445A605E
:10A1100037E03A6CBB6812339B0013445B685A1CEF
:10A12000396CBB6812339B000B445A6029E03A6CCF
:10A13000BB6812339B0013447A685A6021E097F899
:10A140003B30022B07D03A6CBB6812339B001344A0
:10A150007A685A6015E000237B6412E0614B1B684B
:10A16000002B0DD04FF0500383F31188BFF36F8F96
:10A17000BFF34F8FBB6100BF00BFFDE700BF00E032
:10A1800000BF97F83B30012B40F0A1803B6C9B6AED
:10A19000002B0BD04FF0500383F31188BFF36F8F68
:10A1A000BFF34F8F7B6100BF00BFFDE74E4B1B68C5
:10A1B000002B60D13B6C5B693B633B6C9B683A6CEA
:10A1C000D2689A603B6CDB683A6C92685A603B6B71
:10A1D0005A683B6C04339A4203D13B6CDA683B6BA0
:10A1E0005A603B6C00225A613B6B1B685A1E3B6BEA
:10A1F0001A603B6CDB6A01229A403C4B1B6813439C
:10A200003A4A13603B6CDA6A394913469B0013449F
:10A210009B000B4404331B68FB623B6CFA6A9A6038
:10A22000FB6A9A683B6CDA60FB6A9B683A6C0432A2
:10A230005A603B6C1A1DFB6A9A603B6CDA6A1346E3
:10A240009B0013449B002A4A1A443B6C5A613B6CA6
:10A25000DA6A274913469B0013449B000B441B6892
:10A260003A6CD26A591C224813469B0013449B0047
:10A27000034419601BE01F4B5B687B633B6C7A6B8C
:10A28000DA617B6B9A683B6C1A627B6B9B683A6CF9
:10A2900018325A603B6C03F118027B6B9A603B6C7E
:10A2A000144A9A62134B1B680133124A13603B6CC9
:10A2B000DA6A114B1B68DB6A9A4208D97B6D002B66
:10A2C00002D07B6D01221A600C4B01221A60FB6BDD
:10A2D0003B613B6983F3118800BF7B6C18464837AC
:10A2E000BD4680BD580100207C0100205C0100209B
:10A2F000AC00002040010020A800002068010020E0
:10A3000080B590B000AFF860B9607A60FB68002B50
:10A310000BD14FF0500383F31188BFF36F8FBFF35E
:10A320004F8F7B6200BF00BFFDE7BB68002B0BD0E7
:10A330004FF0500383F31188BFF36F8FBFF34F8F3C
:10A340003B6200BF00BFFDE702F0AFFBFB68FB63B1
:10A35000EFF311824FF0500383F31188BFF36F8F37
:10A36000BFF34F8FFA61BB61FB69BB63FA6BBB68DC
:10A37000134450331B7887F83730FA6BBB681344AB
:10A38000503302221A70FA6BBB6812339B001344DD
:10A390005B685A1CF96BBB6812339B000B445A6014
:10A3A00097F83730012B40F0A180FB6B9B6A002BA4
:10A3B0000BD04FF0500383F31188BFF36F8FBFF3BF
:10A3C0004F8F7B6100BF00BFFDE74D4B1B68002B2B
:10A3D00060D1FB6B5B69FB62FB6B9B68FA6BD268BD
:10A3E0009A60FB6BDB68FA6B92685A60FB6A5A688A
:10A3F000FB6B04339A4203D1FB6BDA68FB6A5A6049
:10A40000FB6B00225A61FB6A1B685A1EFB6A1A60CA
:10A41000FB6BDB6A01229A403A4B1B681343394AB3
:10A420001360FB6BDA6A384913469B0013449B00A8
:10A430000B4404331B68BB62FB6BBA6A9A60BB6A4D
:10A440009A68FB6BDA60BB6A9B68FA6B04325A60ED
:10A45000FB6B1A1DBB6A9A60FB6BDA6A13469B00A2
:10A4600013449B00284A1A44FB6B5A61FB6BDA6A5F
:10A47000254913469B0013449B000B441B68FA6B51
:10A48000D26A591C204813469B0013449B00034486
:10A4900019601BE01D4B5B683B63FB6B3A6BDA6139
:10A4A0003B6B9A68FB6B1A623B6B9B68FA6B1832CA
:10A4B0005A60FB6B03F118023B6B9A60FB6B134A0B
:10A4C0009A62124B1B680133104A1360FB6BDA6A05
:10A4D0000F4B1B68DB6A9A4208D97B68002B02D0BD
:10A4E0007B6801221A600B4B01221A60BB6B3B6137
:10A4F0003B6983F3118800BF00BF4037BD4680BD74
:10A500007C0100205C010020AC0000204001002004
:10A51000A80000206801002080B586B000AF7860F8
:10A5200039603B68002B0BD04FF0500383F3118848
:10A53000BFF36F8FBFF34F8FFB6000BF00BFFDE71E
:10A540007B68002B02D1184B1B6800E07B683B61E5
:10A550003B69002B0BD14FF0500383F31188BFF3FD
:10A560006F8FBFF34F8FBB6000BF00BFFDE702F0EE
:10A57000C5F93A693B68134450331B78DBB2022BB0
:10A5800008D13A693B681344503300221A70012302
:10A590007B6101E000237B6102F0E2F97B691846F0
:10A5A0001837BD4680BD00BFA800002080B588B028
:10A5B00000AFF860B9607A60BB68002B0BD04FF039
:10A5C000500383F31188BFF36F8FBFF34F8F7B610D
:10A5D00000BF00BFFDE7FB68002B02D1194B1B68D1
:10A5E00000E0FB68FB61FB69002B0BD14FF05003CF
:10A5F00083F31188BFF36F8FBFF34F8F3B6100BFB1
:10A6000000BFFDE702F07AF9FA69BB6812339B00DC
:10A6100013445B68BB61FA69BB6812339B00134447
:10A620005A687B68DB431A40F969BB6812339B00A8
:10A630000B445A6002F094F9BB6918462037BD46B6
:10A6400080BD00BFA800002080B586B000AF786054
:10A650003960224B1B687B61214B1B683B61214B9E
:10A660001B68FB60204B1B680433184601F0C8FAD6
:10A670000346002B0BD11C4B1B68DB6A012202FA3C
:10A6800003F3DA43194B1B681340184A13607A69C5
:10A690007B681344BB60144B1B68BA685A60BA6885
:10A6A0007B699A4207D2104B1B6804331946F8683D
:10A6B00001F06DFA0EE00C4B1B6804331946386943
:10A6C00001F065FA0A4B1B68BA689A4202D2084A3E
:10A6D000BB68136000BF1837BD4680BD580100201D
:10A6E000380100203C010020A80000205C0100206F
:10A6F0007401002080B483B000AF194B00221A60AF
:10A70000184B00221A60184B00221A60174B0022C7
:10A710001A60174B00221A60164B00221A600023A1
:10A720007B6007E0144A7B68002142F823107B68B5
:10A7300001337B607B68002BF4DD104B00221A6034
:10A740000F4B00221A600F4B00221A600E4B0022A2
:10A750001A6000BF0C37BD465DF8047B704700BF30
:10A76000A800002054010020580100205C010020B6
:10A770006001002064010020680100206C010020BD
:10A7800070010020740100207C01002080B586B09B
:10A7900000AF7860396001237B617B683B613B6976
:10A7A000002B0BD14FF0500383F31188BFF36F8F51
:10A7B000BFF34F8FFB6000BF00BFFDE73B69002B7D
:10A7C0005DD03B69DB6B002B59D03B691A6C3B6950
:10A7D000DB6B0021A3FB0223002B00D001210B46E1
:10A7E000002B4CD102F08AF83B691A683B69DB6B9D
:10A7F0003969096C01FB03F31A443B699A603B69B0
:10A8000000229A633B691A683B695A603B691A687F
:10A810003B69DB6B013B3969096C01FB03F31A44AB
:10A820003B69DA603B69FF2283F844203B69FF22E1
:10A8300083F845203B68002B14D13B691B69002B32
:10A840001AD03B6910331846FEF768FC0346002B0C
:10A8500012D0164B4FF080521A60BFF34F8FBFF3E8
:10A860006F8F09E03B691033184601F03FF93B69EF
:10A870002433184601F03AF902F072F801E000239F
:10A880007B617B69002B0BD14FF0500383F3118860
:10A89000BFF36F8FBFF34F8FBB6000BF00BFFDE7FB
:10A8A0007B6918461837BD4680BD00BF04ED00E047
:10A8B00080B58AB002AFF860B9601346FB7100231F
:10A8C000FB61FB68002B2ED00021BA68FB68A3FB5C
:10A8D0000223002B00D001210B46002B23D1FB6863
:10A8E000BA6802FB03F313F1490F1CD8FB68BA687E
:10A8F00002FB03F3BB61BB694833184602F016F94B
:10A90000F861FB69002B1DD0FB697B617B694833D3
:10A910007B61FA79FB69009313467A69B968F86834
:10A9200000F015F80EE0FB69002B0BD14FF050033F
:10A9300083F31188BFF36F8FBFF34F8F3B6100BF6D
:10A9400000BFFDE7FB6918462037BD4680BD80B5D6
:10A9500084B000AFF860B9607A60FB70BB68002B10
:10A9600003D1BB69BA691A6002E0BB697A681A60F0
:10A97000BB69FA68DA63BB69BA681A640121B8690D
:10A98000FFF704FF00BF1037BD4680BD80B582B021
:10A9900000AF78607B68002B0ED07B6800229A6045
:10A9A0007B6800221A607B680022DA6000230022A4
:10A9B0000021786800F04BF800BF0837BD4680BD25
:10A9C00080B586B000AF0346FB7101237B61002395
:10A9D0003B61FB791A4639697869FFF769FFF860CE
:10A9E000F868FFF7D3FFFB6818461837BD4680BDEF
:10A9F00080B584B000AF786039600023FB607B686D
:10AA0000002B10D03A687B689A420CD802220021B1
:10AA10007868FFF74DFFF860FB68002B12D0FB68E9
:10AA20003A689A630EE0FB68002B0BD14FF050039D
:10AA300083F31188BFF36F8FBFF34F8FBB6000BFED
:10AA400000BFFDE7FB6818461037BD4680BD80B5E6
:10AA50008EB000AFF860B9607A603B6000237B6322
:10AA6000FB683B633B6B002B0BD14FF0500383F330
:10AA70001188BFF36F8FBFF34F8FBB6200BF00BF62
:10AA8000FDE7BB68002B03D13B6B1B6C002B01D196
:10AA9000012300E00023002B0BD14FF0500383F380
:10AAA0001188BFF36F8FBFF34F8F7B6200BF00BF72
:10AAB000FDE73B68022B03D13B6BDB6B012B01D124
:10AAC000012300E00023002B0BD14FF0500383F350
:10AAD0001188BFF36F8FBFF34F8F3B6200BF00BF82
:10AAE000FDE7FEF7FBFD0346002B02D17B68002B40
:10AAF00001D1012300E00023002B0BD14FF05003C4
:10AB000083F31188BFF36F8FBFF34F8FFB6100BFDB
:10AB100000BFFDE701F0F2FE3B6B9A6B3B6BDB6B1A
:10AB20009A4202D33B68022B29D13A68B968386B44
:10AB300000F04CFEF8623B6B5B6A002B10D03B6B65
:10AB400024331846FEF7EAFA0346002B13D0404B95
:10AB50004FF080521A60BFF34F8FBFF36F8F0AE040
:10AB6000FB6A002B07D03A4B4FF080521A60BFF3BC
:10AB70004F8FBFF36F8F01F0F3FE012363E07B681B
:10AB8000002B03D101F0ECFE00235CE07B6B002B7B
:10AB900006D107F114031846FEF786FC01237B63F8
:10ABA00001F0DEFEFDF7E8FE01F0A8FE3B6B93F836
:10ABB00044305BB2B3F1FF3F03D13B6B002283F81B
:10ABC00044203B6B93F845305BB2B3F1FF3F03D1B8
:10ABD0003B6B002283F8452001F0C2FE3A1D07F1CD
:10ABE000140311461846FEF775FC0346002B24D1CA
:10ABF000386B00F008FF0346002B18D03B6B103376
:10AC00007A6811461846FEF7C5F9386B00F06EFEFB
:10AC1000FDF7C0FE0346002B7FF47CAF0C4B4FF0DA
:10AC200080521A60BFF34F8FBFF36F8F72E7386B9C
:10AC300000F05CFEFDF7AEFE6CE7386B00F056FEF0
:10AC4000FDF7A8FE002318463837BD4680BD00BF7B
:10AC500004ED00E080B590B000AFF860B9607A60B4
:10AC60003B60FB68BB63BB6B002B08D0BB68002B51
:10AC700003D1BB6B1B6C002B01D1012300E000232F
:10AC8000002B0BD14FF0500383F31188BFF36F8F6C
:10AC9000BFF34F8F7B6200BF00BFFDE7BB6B002B94
:10ACA00008D03B68022B03D1BB6BDB6B012B01D1BE
:10ACB000012300E00023002B0BD14FF0500383F35E
:10ACC0001188BFF36F8FBFF34F8F3B6200BF00BF90
:10ACD000FDE701F0EAFEEFF311824FF0500383F33A
:10ACE0001188BFF36F8FBFF34F8FFA61BB61FB69B0
:10ACF0007B63BB6B9A6BBB6BDB6B9A4202D33B688B
:10AD0000022B47D1BB6B93F8453087F83330BB6BD0
:10AD10009B6BFB623A68B968B86B00F057FD97F916
:10AD20003330B3F1FF3F12D1BB6B5B6A002B2ED0E7
:10AD3000BB6B24331846FEF7F1F90346002B26D0EF
:10AD40007B68002B23D07B6801221A601FE0FDF78F
:10AD50004BFFB86297F93330BA6A9A4217D997F91C
:10AD600033307F2B0BD14FF0500383F31188BFF3A7
:10AD70006F8FBFF34F8F7B6100BF00BFFDE797F878
:10AD800033300133DBB25AB2BB6B83F84520012369
:10AD9000FB6301E00023FB637B6B3B613B6983F357
:10ADA000118800BFFB6B18464037BD4680BD80B59B
:10ADB0008EB000AF786039607B683B633B6B002BE3
:10ADC00005D03B6B1B6C002B01D1012300E000235D
:10ADD000002B0BD14FF0500383F31188BFF36F8F1B
:10ADE000BFF34F8FFB6100BF00BFFDE73B6B002B44
:10ADF00009D03B6B1B68002B03D13B6B9B68002B7E
:10AE000001D1012300E00023002B0BD14FF05003B0
:10AE100083F31188BFF36F8FBFF34F8FBB6100BF08
:10AE200000BFFDE701F041FEEFF311824FF0500348
:10AE300083F31188BFF36F8FBFF34F8F7A613B614C
:10AE40007B69FB623B6B9B6BBB623B6BDB6BBA6AE8
:10AE50009A4243D23B6B93F8453087F82730BB6A60
:10AE60005A1C3B6B9A6397F92730B3F1FF3F12D11D
:10AE70003B6B5B6A002B2ED03B6B24331846FEF7EE
:10AE80004DF90346002B26D03B68002B23D03B68AE
:10AE900001221A601FE0FDF7A7FE386297F92730FC
:10AEA0003A6A9A4217D997F927307F2B0BD14FF086
:10AEB000500383F31188BFF36F8FBFF34F8FFB6095
:10AEC00000BF00BFFDE797F827300133DBB25AB26D
:10AED0003B6B83F8452001237B6301E000237B6308
:10AEE000FB6ABB60BB6883F3118800BF7B6B1846AD
:10AEF0003837BD4680BD80B58CB000AFF860B96012
:10AF00007A600023FB62FB68BB62BB6A002B0BD13B
:10AF10004FF0500383F31188BFF36F8FBFF34F8F50
:10AF20003B6200BF00BFFDE7BB68002B03D1BB6ADB
:10AF30001B6C002B01D1012300E00023002B0BD15F
:10AF40004FF0500383F31188BFF36F8FBFF34F8F20
:10AF5000FB6100BF00BFFDE7FEF7C0FB0346002B0F
:10AF600002D17B68002B01D1012300E00023002BDC
:10AF70000BD14FF0500383F31188BFF36F8FBFF3F2
:10AF80004F8FBB6100BF00BFFDE701F0B7FCBB6A9C
:10AF90009B6B7B627B6A002B1FD0B968B86A00F09C
:10AFA0007FFC7B6A5A1EBB6A9A63BB6A1B69002BD3
:10AFB0000FD0BB6A10331846FEF7B0F80346002BDB
:10AFC00007D03D4B4FF080521A60BFF34F8FBFF355
:10AFD0006F8F01F0C5FC012369E07B68002B03D172
:10AFE00001F0BEFC002362E0FB6A002B06D107F1F2
:10AFF00010031846FEF758FA0123FB6201F0B0FC7B
:10B00000FDF7BAFC01F07AFCBB6A93F844305BB2FE
:10B01000B3F1FF3F03D1BB6A002283F84420BB6A2F
:10B0200093F845305BB2B3F1FF3F03D1BB6A002216
:10B0300083F8452001F094FC3A1D07F110031146F6
:10B040001846FEF747FA0346002B23D1B86A00F0F2
:10B050009FFC0346002B17D0BB6A24337A68114645
:10B060001846FDF797FFB86A00F040FCFDF792FC28
:10B070000346002B89D1104B4FF080521A60BFF36A
:10B080004F8FBFF36F8F80E7B86A00F02FFCFDF79A
:10B0900081FC7AE7B86A00F029FCFDF77BFCB86A0E
:10B0A00000F076FC0346002B3FF46FAF00231846F8
:10B0B0003037BD4680BD00BF04ED00E080B58CB0E8
:10B0C00000AF786039600023FB627B687B620023FD
:10B0D000BB627B6A002B0BD14FF0500383F31188C6
:10B0E000BFF36F8FBFF34F8FBB6100BF00BFFDE7A2
:10B0F0007B6A1B6C002B0BD04FF0500383F311883D
:10B10000BFF36F8FBFF34F8F7B6100BF00BFFDE7C1
:10B11000FEF7E4FA0346002B02D13B68002B01D175
:10B12000012300E00023002B0BD14FF0500383F3E9
:10B130001188BFF36F8FBFF34F8F3B6100BF00BF1C
:10B14000FDE701F0DBFB7B6A9B6B3B623B6A002BFC
:10B1500024D03B6A5A1E7B6A9A637B6A1B68002B69
:10B1600004D1FEF7F5FC02467B6A9A607B6A1B6994
:10B17000002B0FD07B6A10331846FDF7CFFF034634
:10B18000002B07D04C4B4FF080521A60BFF34F8F0B
:10B19000BFF36F8F01F0E4FB012389E03B68002BD4
:10B1A00003D101F0DDFB002382E0FB6A002B06D116
:10B1B00007F108031846FEF777F90123FB6201F057
:10B1C000CFFBFDF7D9FB01F099FB7B6A93F8443084
:10B1D0005BB2B3F1FF3F03D17B6A002283F84420C6
:10B1E0007B6A93F845305BB2B3F1FF3F03D17B6AD2
:10B1F000002283F8452001F0B3FB3A4607F108032B
:10B2000011461846FEF766F90346002B32D1786ADC
:10B2100000F0BEFB0346002B26D07B6A1B68002B88
:10B2200009D101F06BFB7B6A9B681846FEF774FA44
:10B23000B86201F095FB7B6A24333A6811461846E0
:10B24000FDF7A8FE786A00F051FBFDF7A3FB03466B
:10B25000002B7FF476AF184B4FF080521A60BFF38B
:10B260004F8FBFF36F8F6CE7786A00F03FFBFDF7FD
:10B2700091FB66E7786A00F039FBFDF78BFB786A93
:10B2800000F086FB0346002B3FF45BAFBB6A002B4C
:10B290000DD001F033FB786A00F080FAF8617B6A28
:10B2A0009B68F9691846FEF77FFB01F059FB002304
:10B2B00018463037BD4680BD04ED00E080B58CB047
:10B2C00000AFF860B9607A600023FB62FB68BB6284
:10B2D000BB6A002B08D0BB68002B03D1BB6A1B6C78
:10B2E000002B01D1012300E00023002B0BD14FF0F4
:10B2F000500383F31188BFF36F8FBFF34F8FFB6150
:10B3000000BF00BFFDE7FEF7E9F90346002B02D1BD
:10B310007B68002B01D1012300E00023002B0BD11F
:10B320004FF0500383F31188BFF36F8FBFF34F8F3C
:10B33000BB6100BF00BFFDE701F0E0FABB6A9B6B99
:10B340007B627B6A002B21D0BB6ADB683B62B968F9
:10B35000B86A00F0A5FABB6A3A6ADA60BB6A5B6A4F
:10B36000002B0FD0BB6A24331846FDF7D7FE0346E7
:10B37000002B07D03C4B4FF080521A60BFF34F8F29
:10B38000BFF36F8F01F0ECFA012369E07B68002BBB
:10B3900003D101F0E5FA002362E0FB6A002B06D13D
:10B3A00007F110031846FEF77FF80123FB6201F056
:10B3B000D7FAFDF7E1FA01F0A1FABB6A93F844303D
:10B3C0005BB2B3F1FF3F03D1BB6A002283F8442094
:10B3D000BB6A93F845305BB2B3F1FF3F03D1BB6A60
:10B3E000002283F8452001F0BBFA3A1D07F1100353
:10B3F00011461846FEF76EF80346002B23D1B86AB3
:10B4000000F0C6FA0346002B17D0BB6A24337A68D3
:10B4100011461846FDF7BEFDB86A00F067FAFDF761
:10B42000B9FA0346002B87D10F4B4FF080521A60B8
:10B43000BFF34F8FBFF36F8F7EE7B86A00F056FA05
:10B44000FDF7A8FA78E7B86A00F050FAFDF7A2FA1B
:10B45000B86A00F09DFA0346002B3FF46DAF00235D
:10B4600018463037BD4680BD04ED00E080B590B091
:10B4700000AFF860B9607A60FB68BB63BB6B002B00
:10B480000BD14FF0500383F31188BFF36F8FBFF3DD
:10B490004F8F7B6200BF00BFFDE7BB68002B03D16D
:10B4A000BB6B1B6C002B01D1012300E00023002BA0
:10B4B0000BD14FF0500383F31188BFF36F8FBFF3AD
:10B4C0004F8F3B6200BF00BFFDE701F0EEFAEFF3E4
:10B4D00011824FF0500383F31188BFF36F8FBFF3D6
:10B4E0004F8FFA61BB61FB697B63BB6B9B6B3B63FB
:10B4F0003B6B002B47D0BB6B93F8443087F82F3061
:10B50000B968B86B00F0CCF93B6B5A1EBB6B9A6301
:10B5100097F92F30B3F1FF3F12D1BB6B1B69002BA2
:10B520002ED0BB6B10331846FDF7F8FD0346002BF9
:10B5300026D07B68002B23D07B6801221A601FE095
:10B54000FDF752FBB86297F92F30BA6A9A4217D9C1
:10B5500097F92F307F2B0BD14FF0500383F31188D5
:10B56000BFF36F8FBFF34F8F7B6100BF00BFFDE75D
:10B5700097F82F300133DBB25AB2BB6B83F844200B
:10B580000123FB6301E00023FB637B6B3B613B69B1
:10B5900083F3118800BFFB6B18464037BD4680BD62
:10B5A00080B58CB000AF786039607B68BB62BB6AE5
:10B5B000002B08D03B68002B03D1BB6A1B6C002B0F
:10B5C00001D1012300E00023002B0BD14FF05003E9
:10B5D00083F31188BFF36F8FBFF34F8FFB6100BF01
:10B5E00000BFFDE7BB6A002B05D0BB6A1B6C002BBC
:10B5F00001D0012300E00023002B0BD14FF05003BA
:10B6000083F31188BFF36F8FBFF34F8FBB6100BF10
:10B6100000BFFDE701F049FAEFF311824FF050034C
:10B6200083F31188BFF36F8FBFF34F8F7A613B6154
:10B630007B697B62BB6A9B6B002B0CD0BB6ADB68AF
:10B640003B623968B86A00F02BF9BB6A3A6ADA6083
:10B650000123FB6201E00023FB627B6AFB60FB6865
:10B6600083F3118800BFFB6A18463037BD4680BDA2
:10B6700080B584B000AF78607B68002B0BD14FF0B1
:10B68000500383F31188BFF36F8FBFF34F8FBB60FD
:10B6900000BF00BFFDE701F031F97B689B6BFB60E9
:10B6A00001F05EF9FB6818461037BD4680BD80B5D5
:10B6B00086B000AF78607B687B617B69002B0BD123
:10B6C0004FF0500383F31188BFF36F8FBFF34F8F99
:10B6D000FB6000BF00BFFDE701F010F97B69DA6B8A
:10B6E0007B699B6BD31A3B6101F03AF93B691846C1
:10B6F0001837BD4680BD80B487B000AF78607B68E6
:10B700007B617B69002B0BD14FF0500383F31188D1
:10B71000BFF36F8FBFF34F8FFB6000BF00BFFDE72C
:10B720007B699B6B3B613B6918461C37BD465DF8E6
:10B73000047B704780B584B000AF78607B68FB60A5
:10B74000FB68002B0BD14FF0500383F31188BFF33C
:10B750006F8FBFF34F8FBB6000BF00BFFDE7F8687E
:10B7600001F01CFB00BF1037BD4680BD80B483B024
:10B7700000AF78607B681B6C18460C37BD465DF8DF
:10B78000047B704780B483B000AF78607B68DB6B6C
:10B7900018460C37BD465DF8047B704780B485B011
:10B7A00000AF78607B685B6A002B06D07B681B6B00
:10B7B0001B68C3F10503FB6001E00023FB60FB682D
:10B7C00018461437BD465DF8047B704780B586B0D7
:10B7D00000AFF860B9607A6000237B61FB689B6B07
:10B7E0003B61FB681B6C002B0DD1FB681B68002BB9
:10B7F0004DD1FB689B681846FEF72EF87861FB6810
:10B8000000229A6043E07B68002B19D1FB685868DE
:10B81000FB681B6C1A46B96802F00EF8FB685A68A0
:10B82000FB681B6C1A44FB685A60FB685A68FB682B
:10B830009B689A422BD3FB681A68FB685A6026E023
:10B84000FB68D868FB681B6C1A46B96801F0F4FF06
:10B85000FB68DA68FB681B6C5B421A44FB68DA60C1
:10B86000FB68DA68FB681B689A4207D2FB689A6833
:10B87000FB681B6C5B421A44FB68DA607B68022B36
:10B8800005D13B69002B02D03B69013B3B613B6921
:10B890005A1CFB689A637B6918461837BD4680BD01
:10B8A00080B582B000AF786039607B681B6C002B7C
:10B8B00018D07B68DA687B681B6C1A447B68DA6096
:10B8C0007B68DA687B689B689A4203D37B681A6856
:10B8D0007B68DA607B68D9687B681B6C1A463868BD
:10B8E00001F0AAFF00BF0837BD4680BD80B584B017
:10B8F00000AF786001F002F87B6893F84530FB7385
:10B9000011E07B685B6A002B12D07B6824331846F9
:10B91000FDF704FC0346002B01D0FDF73BFEFB7B4B
:10B92000013BDBB2FB7397F90F30002BE9DC00E041
:10B9300000BF7B68FF2283F8452001F011F800F07A
:10B94000DDFF7B6893F84430BB7311E07B681B69B3
:10B95000002B12D07B6810331846FDF7DFFB03463F
:10B96000002B01D0FDF716FEBB7B013BDBB2BB73A6
:10B9700097F90E30002BE9DC00E000BF7B68FF2266
:10B9800083F8442000F0ECFF00BF1037BD4680BDB7
:10B9900080B584B000AF786000F0B0FF7B689B6B2F
:10B9A000002B02D10123FB6001E00023FB6000F0CB
:10B9B000D7FFFB6818461037BD4680BD80B487B0FE
:10B9C00000AF78607B683B613B69002B0BD14FF087
:10B9D000500383F31188BFF36F8FBFF34F8FFB606A
:10B9E00000BF00BFFDE73B699B6B002B02D1012329
:10B9F0007B6101E000237B617B6918461C37BD46F3
:10BA00005DF8047B704780B584B000AF786000F0CB
:10BA100075FF7B689A6B7B68DB6B9A4202D10123CE
:10BA2000FB6001E00023FB6000F09AFFFB68184612
:10BA30001037BD4680BD80B487B000AF78607B68AA
:10BA40003B613B69002B0BD14FF0500383F311880E
:10BA5000BFF36F8FBFF34F8FFB6000BF00BFFDE7E9
:10BA60003B699A6B3B69DB6B9A4202D101237B6194
:10BA700001E000237B617B6918461C37BD465DF8F9
:10BA8000047B704780B586B000AFF860B9607A601B
:10BA9000FB687B6100F032FF7B6993F844305BB256
:10BAA000B3F1FF3F03D17B69002283F844207B6917
:10BAB00093F845305BB2B3F1FF3F03D17B690022BD
:10BAC00083F8452000F04CFF7B699B6B002B06D16F
:10BAD0007B6924337A68B9681846FDF7D9FA786922
:10BAE000FFF704FF00BF1837BD4680BD80B483B0A8
:10BAF00000AF78607B6803F108027B685A607B685E
:10BB00004FF0FF329A607B6803F108027B68DA60CD
:10BB10007B6803F108027B681A617B6800221A6067
:10BB200000BF0C37BD465DF8047B704780B483B01E
:10BB300000AF78607B6800221A6100BF0C37BD46F9
:10BB40005DF8047B704780B485B000AF78603960E1
:10BB50007B685B68FB603B68FA685A60FB689A68C0
:10BB60003B689A60FB689B683A685A60FB683A6871
:10BB70009A603B687A681A617B681B685A1C7B680C
:10BB80001A6000BF1437BD465DF8047B704780B46F
:10BB900085B000AF786039603B681B68BB60BB68EC
:10BBA000B3F1FF3F03D17B681B69FB600CE07B684E
:10BBB0000833FB6002E0FB685B68FB60FB685B6866
:10BBC0001B68BA689A42F6D2FB685A683B685A60AA
:10BBD0003B685B683A689A603B68FA689A60FB6801
:10BBE0003A685A603B687A681A617B681B685A1C1D
:10BBF0007B681A6000BF1437BD465DF8047B704750
:10BC000080B485B000AF78607B681B69FB607B689F
:10BC10005B687A6892689A607B689B687A68526809
:10BC20005A60FB685B687A689A4203D17B689A68BD
:10BC3000FB685A607B6800221A61FB681B685A1E09
:10BC4000FB681A60FB681B6818461437BD465DF830
:10BC5000047B704780B584B002AF00237B6000F0A6
:10BC600013FC124B1B68002B0BD0114B01930223CA
:10BC7000009300234FF480720E490F48FCF78AFCB2
:10BC800078607B68002B0BD14FF0500383F3118851
:10BC9000BFF36F8FBFF34F8F3B6000BF00BFFDE767
:10BCA0007B6818460837BD4680BD00BFB001002044
:10BCB000B401002078D90008D9C0000880B588B048
:10BCC00002AFF860B9607A603B60282000F02EFF78
:10BCD00078617B69002B0DD07B69002283F82420DA
:10BCE0007B6901933B6A00933B687A68B968F8689E
:10BCF00000F005F87B6918461837BD4680BD80B551
:10BD000086B000AFF860B9607A603B60BB68002B1A
:10BD10000BD14FF0500383F31188BFF36F8FBFF344
:10BD20004F8F7B6100BF00BFFDE700F0ADFB7B6A7A
:10BD3000FA681A607B6ABA689A617B6A3A68DA6163
:10BD40007B6A3A6A1A627B6A04331846FFF7EEFE92
:10BD50007B68002B08D07B6A93F8243043F00403FF
:10BD6000DAB27B6A83F8242000BF1837BD4680BD55
:10BD700080B58AB000AFF860B9607A603B6000239C
:10BD80007B621E4B1B68002B32D0FB68002B2FD030
:10BD9000BB687B617B68BB61FB68FB61BB68052B93
:10BDA0000BDD4FF0500383F31188BFF36F8FBFF3A8
:10BDB0004F8F3B6200BF00BFFDE7BB68052B17DC60
:10BDC000FDF78CFC0346022B09D10C4B186807F1D8
:10BDD000140100233A6BFEF73AFE786208E0074B45
:10BDE000186807F1140100230022FEF730FE786284
:10BDF0007B6A18462837BD4680BD00BFB0010020D1
:10BE000080B58AB000AFF860B9607A603B6000230B
:10BE10007B62164B1B68002B23D0FB68002B20D0C5
:10BE2000BB687B617B68BB61FB68FB61BB68052B02
:10BE30000BDC4FF0500383F31188BFF36F8FBFF318
:10BE40004F8F3B6200BF00BFFDE7BB68052B08DDDD
:10BE5000064B186807F1140100233A68FEF7FAFE52
:10BE600078627B6A18462837BD4680BDB001002045
:10BE700080B483B000AF0C4B1B68002B0BD14FF08C
:10BE8000500383F31188BFF36F8FBFF34F8F7B6035
:10BE900000BF00BFFDE7044B1B6818460C37BD46CA
:10BEA0005DF8047B704700BFB401002080B485B00A
:10BEB00000AF78607B68FB607B68002B0BD14FF094
:10BEC000500383F31188BFF36F8FBFF34F8FBB60B5
:10BED00000BF00BFFDE7FB689B6918461437BD46ED
:10BEE0005DF8047B704780B584B000AF786039603E
:10BEF0007B68FB607B68002B0BD14FF0500383F312
:10BF00001188BFF36F8FBFF34F8FBB6000BF00BFBF
:10BF1000FDE700F0F3FC3B68002B09D0FB6893F8C9
:10BF2000243043F00403DAB2FB6883F8242008E0ED
:10BF3000FB6893F8243023F00403DAB2FB6883F83B
:10BF4000242000F00DFD00BF1037BD4680BD80B538
:10BF500086B000AF78607B683B617B68002B0BD1BB
:10BF60004FF0500383F31188BFF36F8FBFF34F8FF0
:10BF7000FB6000BF00BFFDE700F0C0FC3B6993F829
:10BF8000243003F00403002B02D100237B6101E085
:10BF900001237B6100F0E4FC7B6918461837BD463D
:10BFA00080BD80B584B000AF78607868FFF7CFFFC0
:10BFB0000346FB60FB6818461037BD4680BD80B461
:10BFC00087B000AF78607B687B617B68002B0BD10A
:10BFD0004FF0500383F31188BFF36F8FBFF34F8F80
:10BFE000FB6000BF00BFFDE77B695B683B613B69AD
:10BFF00018461C37BD465DF8047B704780B485B099
:10C0000000AF78607B68FB607B68002B0BD14FF042
:10C01000500383F31188BFF36F8FBFF34F8FBB6063
:10C0200000BF00BFFDE7FB681B6818461437BD461C
:10C030005DF8047B704780B584B000AFF860B960EC
:10C040007A6008E0FB689B69BA681344BB60FB68D0
:10C050001B6AF8689847FB689A69BB68D118BB6887
:10C060007A68F86800F0DCF80346002BEAD100BFDC
:10C0700000BF1037BD4680BD80B584B000AF78608A
:10C080003960144B1B68DB68DB68FB60FB680433BA
:10C090001846FFF7B5FDFB6893F8243003F004035E
:10C0A000002B05D03A687968F868FFF7C4FF08E00C
:10C0B000FB6893F8243023F00103DAB2FB6883F8BD
:10C0C0002420FB681B6AF868984700BF1037BD46FC
:10C0D00080BD00BFA801002080B584B000AF7860AB
:10C0E00007F10803184600F057F8F860BB681946D6
:10C0F000F86800F004F800F0D5F800BFF0E780B56C
:10C1000084B000AF78603960FCF736FC07F10803B3
:10C11000184600F065F8F860BB68002B30D13B682A
:10C12000002B0AD17A68FB689A4206D8FCF732FCE9
:10C13000F9687868FFF7A0FF24E03B68002B08D07F
:10C14000124B1B681B68002B01D1012300E0002368
:10C150003B600F4B18687A68FB68D31A3A68194637
:10C16000FFF790FCFCF716FC0346002B0AD1094BA5
:10C170004FF080521A60BFF34F8FBFF36F8F01E013
:10C18000FCF708FC00BF1037BD4680BDAC010020A5
:10C19000B001002004ED00E080B485B000AF78600D
:10C1A0000E4B1B681B68002B01D1012200E000220E
:10C1B0007B681A607B681B68002B05D1074B1B68E6
:10C1C000DB681B68FB6001E00023FB60FB6818462E
:10C1D0001437BD465DF8047B704700BFA8010020FE
:10C1E00080B584B000AF7860FCF7DCFCF8600B4BE6
:10C1F0001B68FA689A4205D200F020F97B68012298
:10C200001A6002E07B6800221A60044AFB6813602F
:10C21000FB6818461037BD4680BD00BFB80100203E
:10C2200080B586B000AFF860B9607A603B600023EB
:10C230007B61FB68BA685A60FB68FA681A61BA6881
:10C240007B689A4212D87A683B68D21AFB689B696D
:10C250009A4202D301237B611BE0104B1A68FB68F2
:10C26000043319461046FFF792FC12E07A683B68E7
:10C270009A4206D2BA683B689A4202D301237B6194
:10C2800007E0074B1A68FB68043319461046FFF7AE
:10C290007EFC7B6918461837BD4680BDAC01002086
:10C2A000A801002080B588B000AF07F10803002284
:10C2B0001A605A609A60ADE0BB68002BC0F2AA8099
:10C2C0003B69FB61FB69002B00F0A480FB695B69A3
:10C2D000002B04D0FB6904331846FFF791FC3B1D8B
:10C2E0001846FFF77DFFB861BB68013B082B00F2E1
:10C2F0008E8001A252F823F01DC300081DC3000860
:10C3000085C3000899C30008E5C300081DC30008E1
:10C310001DC3000885C3000899C30008FB6993F892
:10C32000243043F00103DAB2FB6983F82420FA6871
:10C33000FB699B69D118FB68BA69F869FFF770FF60
:10C340000346002B65D0FB6993F8243003F0040307
:10C35000002B09D0FA68FB699B691344BA69194636
:10C36000F869FFF768FE08E0FB6993F8243023F0D2
:10C370000103DAB2FB6983F82420FB691B6AF869C0
:10C38000984746E0FB6993F8243023F00103DAB2C2
:10C39000FB6983F824203DE0FB6993F8243043F0E7
:10C3A0000103DAB2FB6983F82420FA68FB699A6119
:10C3B000FB699B69002B0BD14FF0500383F311886D
:10C3C000BFF36F8FBFF34F8F7B6100BF00BFFDE7EF
:10C3D000FB699A69BB69D118BB69BA69F869FFF74B
:10C3E0001FFF17E0FB6993F8243003F00203002BD2
:10C3F00003D1F86900F0D2FC0CE0FB6993F824301B
:10C4000023F00103DAB2FB6983F8242002E000BFC5
:10C4100000E000BF084B1B6807F108010022184626
:10C42000FEF769FD0346002B7FF446AF00BF00BF57
:10C430002037BD4680BD00BFB001002080B582B06E
:10C4400000AF09E00E4B1B68DB681B683B604FF0D8
:10C45000FF313868FFF710FE094B1B681B68002B83
:10C46000F0D1074B1B687B60064B1B68044A1360C6
:10C47000044A7B68136000BF0837BD4680BD00BF1B
:10C48000A8010020AC01002080B500AF00F036FA12
:10C490000D4B1B68002B13D10C48FFF727FB0C48F2
:10C4A000FFF724FB0B4B094A1A600B4B084A1A6032
:10C4B00000220C210520FEF7FBF90346024A136017
:10C4C00000F04EFA00BF80BDB001002080010020C6
:10C4D00094010020A8010020AC01002080B586B0A6
:10C4E00000AF78607B683B617B68002B0BD14FF01D
:10C4F000500383F31188BFF36F8FBFF34F8FFB603F
:10C5000000BF00BFFDE700F0F9F93B6993F8243064
:10C5100003F00103002B02D100237B6101E0012322
:10C520007B6100F01DFA7B6918461837BD4680BD57
:10C5300080B586B000AF78607B687B617B68002B3C
:10C540000BD14FF0500383F31188BFF36F8FBFF30C
:10C550004F8FFB6000BF00BFFDE700F0CFF97B69A4
:10C56000DB693B6100F0FCF93B6918461837BD46B2
:10C5700080BD80B584B000AF786039607B68FB60B7
:10C580007B68002B0BD14FF0500383F31188BFF36E
:10C590006F8FBFF34F8FBB6000BF00BFFDE700F0A0
:10C5A000ADF9FB683A68DA6100F0DAF900BF1037DC
:10C5B000BD4680BD80B400AF054B00221A60054B1C
:10C5C00000221A6000BFBD465DF8047B704700BFC3
:10C5D000B0010020B401002080B485B000AFF86045
:10C5E000B9607A60FB68043BFB60FB684FF08072C7
:10C5F0001A60FB68043BFB60BB6823F00102FB6828
:10C600001A60FB68043BFB600C4AFB681A60FB681D
:10C61000143BFB607A68FB681A60FB68043BFB60B4
:10C62000FB686FF002021A60FB68203BFB60FB684E
:10C6300018461437BD465DF8047B704741C60008B4
:10C6400080B485B000AF00237B60134B1B68B3F14F
:10C65000FF3F0BD04FF0500383F31188BFF36F8F70
:10C66000BFF34F8FFB6000BF00BFFDE74FF05003EB
:10C6700083F31188BFF36F8FBFF34F8FBB6000BF91
:10C6800000BF7B68002BFCD000BF00BF1437BD4645
:10C690005DF8047B704700BF00000020064B19685E
:10C6A0000868B0E8F04F80F30988BFF36F8F4FF050
:10C6B000000080F311887047A800002000BF0848E0
:10C6C0000068006880F308884FF0000080F3148849
:10C6D00062B661B6BFF34F8FBFF36F8F00DF00BF4D
:10C6E00008ED00E000BF80B58CB000AF684B1B6860
:10C6F000684A93420BD14FF0500383F31188BFF384
:10C700006F8FBFF34F8F3B6200BF00BFFDE7604BF1
:10C710001B68614A93420BD14FF0500383F3118899
:10C72000BFF36F8FBFF34F8F7B6200BF00BFFDE78A
:10C730005A4B1B68FB62FB6A2C331B68584A9342B6
:10C740000BD04FF0500383F31188BFF36F8FBFF30B
:10C750004F8FFB6100BF00BFFDE7FB6A38331B68EA
:10C76000504A93420BD04FF0500383F31188BFF32C
:10C770006F8FBFF34F8FBB6100BF00BFFDE700238A
:10C78000BB60494BBB62BB6A1B78DBB2FB73BB6A05
:10C79000FF221A70BB6A1B78DBB2FB71FB79DBB23C
:10C7A00003F05003DAB2414B1A70404B1B78002B58
:10C7B0000BD14FF0500383F31188BFF36F8FBFF39A
:10C7C0004F8F7B6100BF00BFFDE7FB79DBB2DB432E
:10C7D00003F05003002B13D04FF0500383F3118864
:10C7E000BFF36F8FBFF34F8F3B6100BF00BFFDE70B
:10C7F000BB680133BB60FB79DBB25B00DBB2FB7172
:10C80000FB79DBB203F08003802BF1D0BB68082BEF
:10C8100003D1274B00221A6004E0BB68C3F1070371
:10C82000234A1360224B1B681B02214A1360204BD2
:10C830001B6803F4E0631E4A1360FB7BDAB2BB6A39
:10C840001A701C4B1B681B4A43F47F031360194B7F
:10C850001B68184A43F07F431360174B00221A608D
:10C8600000F0FCF8154B00221A6000F013F9144B8D
:10C870001B68134A43F040431360FFF720FFFCF7A7
:10C880002BFBFFF7DDFE002318463037BD4680BD89
:10C8900000ED00E071C20F4170C20F4108ED00E0F1
:10C8A0009DC60008B5C9000800E400E0BC010020F6
:10C8B000C001002020ED00E01CED00E000000020A1
:10C8C00034EF00E080B483B000AF0B4B1B68B3F5CE
:10C8D0007A7F0BD04FF0500383F31188BFF36F8F33
:10C8E000BFF34F8F7B6000BF00BFFDE700BF0C3779
:10C8F000BD465DF8047B70470000002080B483B023
:10C9000000AF4FF0500383F31188BFF36F8FBFF375
:10C910004F8F7B6000BF104B1B6801330E4A1360C2
:10C920000D4B1B68012B10D10C4B1B68DBB2002B8D
:10C930000BD04FF0500383F31188BFF36F8FBFF319
:10C940004F8F3B6000BF00BFFDE700BF0C37BD4607
:10C950005DF8047B704700BF0000002004ED00E09C
:10C9600080B483B000AF124B1B68002B0BD14FF08B
:10C97000500383F31188BFF36F8FBFF34F8F7B603A
:10C9800000BF00BFFDE70A4B1B68013B084A13606C
:10C99000074B1B68002B05D100233B603B6883F3EA
:10C9A000118800BF00BF0C37BD465DF8047B70479F
:10C9B00000000020EFF30980BFF36F8F144B1A685B
:10C9C0001EF0100F08BF20ED108A20E9F04F106014
:10C9D0002DE909004FF0500080F31188BFF34F8F0D
:10C9E000BFF36F8FFCF778FA4FF0000080F31188E7
:10C9F00009BC19680868B0E8F04F1EF0100F08BFB6
:10CA0000B0EC108A80F30988BFF36F8F7047000085
:10CA1000A800002000BF80B582B000AF4FF05003E7
:10CA200083F31188BFF36F8FBFF34F8F7B6000BF1D
:10CA3000FCF738F90346002B03D0074B4FF0805228
:10CA40001A6000233B603B6883F3118800BF00BF7E
:10CA50000837BD4680BD00BF04ED00E080B400AFE4
:10CA6000084B00221A60084B00221A60074B084A44
:10CA70001A60044B07221A6000BFBD465DF8047BB4
:10CA8000704700BF10E000E018E000E014E000E0B4
:10CA90001F480100DFF80C00016841F470010160DB
:10CAA0007047000088ED00E000BF80B485B000AFA3
:10CAB000EFF30583FB60FB680F2B15D9174AFB6862
:10CAC00013441B78FB72164B1B78FA7A9A420BD2EE
:10CAD0004FF0500383F31188BFF36F8FBFF34F8F75
:10CAE0007B6000BF00BFFDE70E4B1B6803F4E062F4
:10CAF0000D4B1B689A420BD94FF0500383F31188FA
:10CB0000BFF36F8FBFF34F8F3B6000BF00BFFDE7E8
:10CB100000BF1437BD465DF8047B7047F0E300E0CA
:10CB2000BC0100200CED00E0C001002080B58EB0FB
:10CB300000AF78600023FB620023BB627B68002BA0
:10CB400022D00823DB437A689A421BD808227B68EC
:10CB500013447B607B6803F00703002B14D07B68D1
:10CB600003F00703C3F108037B627B6ADB437A6847
:10CB70009A4204D87A687B6A13447B6004E00023FD
:10CB80007B6001E000237B60FBF7F6FE7C4B1B68BB
:10CB9000002B01D100F0D7F97B68002BC0F2D780C1
:10CBA0007B68002B00F0D380764B1B687A689A4232
:10CBB00000F2CD80744B3B63734B1B687B637B6BD4
:10CBC000724A934205D37B6B714A934201D8012389
:10CBD00000E00023002B29D14FF0500383F311888C
:10CBE000BFF36F8FBFF34F8FFB6100BF00BFFDE747
:10CBF0007B6B3B637B6B1B687B637B6B634A934202
:10CC000005D37B6B624A934201D8012300E00023E5
:10CC1000002B0BD14FF0500383F31188BFF36F8FBC
:10CC2000BFF34F8FBB6100BF00BFFDE77B6B5B684D
:10CC30007A689A4203D97B6B1B68002BD8D1504B82
:10CC40001B687A6B9A4200F082803B6B1B6808225B
:10CC50001344FB62FB6A4D4A934205D3FB6A4C4A7C
:10CC6000934201D8012300E00023002B0BD14FF0A9
:10CC7000500383F31188BFF36F8FBFF34F8F7B6136
:10CC800000BF00BFFDE77B6B1A683B6B1A607B6BD4
:10CC90005B687A689A420BD94FF0500383F311888E
:10CCA000BFF36F8FBFF34F8F3B6100BF00BFFDE746
:10CCB0007B6B5A687B68D21A08235B009A4224D99E
:10CCC0007A6B7B6813443B623B6A03F00703002BDB
:10CCD0000BD04FF0500383F31188BFF36F8FBFF376
:10CCE0004F8FFB6000BF00BFFDE77B6B5A687B681E
:10CCF000D21A3B6A5A607B6B7A685A603B6B1A683F
:10CD00003B6A1A603B6B3A6A1A601E4B1A687B6B6F
:10CD10005B68D31A1B4A13601A4B1A681D4B1B68B9
:10CD20009A4203D2174B1B681A4A13607B6B5B68ED
:10CD3000BB627B6B5B6843F000427B6B5A607B6B32
:10CD400000221A60144B1B680133134A1360FBF76F
:10CD500021FEFB6A03F00703002B0BD04FF05003BA
:10CD600083F31188BFF36F8FBFF34F8FBB6000BF9A
:10CD700000BFFDE7FB6A18463837BD4680BD00BFDF
:10CD8000CC410020D0410020C4410020C40100203B
:10CD9000C3410020D4410020D841002080B588B094
:10CDA00000AF78607B68FB617B68002B60D0082354
:10CDB0005B42FA691344FB61FB69BB61BB692E4AA4
:10CDC000934205D3BB692D4A934201D8012300E069
:10CDD0000023002B0BD14FF0500383F31188BFF3D6
:10CDE0006F8FBFF34F8F7B6100BF00BFFDE7BB6953
:10CDF0005B68002B0BDB4FF0500383F31188BFF30C
:10CE00006F8FBFF34F8F3B6100BF00BFFDE7BB6972
:10CE10001B68002B0BD04FF0500383F31188BFF336
:10CE20006F8FBFF34F8FFB6000BF00BFFDE7BB6993
:10CE30005B68002B1CDABB691B68002B18D1BB692F
:10CE40005B6823F00042BB695A60FBF795FDBB6944
:10CE50005A680B4B1B681344094A1360B86900F009
:10CE6000CDF8084B1B680133064A1360FBF792FDAF
:10CE700000BF2037BD4680BDC4010020C341002053
:10CE8000D0410020DC41002080B400AF034B1B6880
:10CE90001846BD465DF8047B704700BFD0410020B6
:10CEA00080B400AF034B1B681846BD465DF8047B99
:10CEB000704700BFD441002080B400AF044B1B6812
:10CEC000044A136000BFBD465DF8047B704700BF95
:10CED000D0410020D441002080B400AF00BFBD4647
:10CEE0005DF8047B704780B584B000AF786039602E
:10CEF0000023FB607B68002B09D04FF0FF327B687A
:10CF0000B2FBF3F33A689A4201D9012300E000230F
:10CF1000002B13D17B683A6802FB03F31846FFF736
:10CF200005FEF860FB68002B08D07B683A6802FBBE
:10CF300003F31A460021F86800F030FCFB6818463D
:10CF40001037BD4680BD80B485B000AF4FF480433C
:10CF5000BB60254BFB60FB6803F00703002B0CD084
:10CF6000FB680733FB60FB6823F00703FB60BA68CC
:10CF7000FB68D31A1C4A1344BB60FB681B4A13604E
:10CF80001A4B00225A60FA68BB6813447B6008227F
:10CF90007B689B1A7B607B6823F007037B607B6860
:10CFA000134A1360124B1B6800225A60104B1B6817
:10CFB00000221A60FB683B603B687A68D21A3B68C3
:10CFC0005A600B4B1A683B681A603B685B68094AF9
:10CFD00013603B685B68084A136000BF1437BD46A6
:10CFE0005DF8047B704700BFC4010020C4410020ED
:10CFF000CC410020D4410020D041002080B487B033
:10D0000000AF7860364B7B6102E07B691B687B6117
:10D010007B691B687A689A42F7D87B69304A9342E9
:10D0200018D07B692F4A934205D37B692E4A9342DD
:10D0300001D8012300E00023002B0BD14FF0500357
:10D0400083F31188BFF36F8FBFF34F8FFB6000BF77
:10D0500000BFFDE77B693B617B695B683A6913440C
:10D060007A689A4208D17B695A687B685B681A447F
:10D070007B695A607B697B607B683B617B685B682E
:10D080003A691A447B691B689A4218D17B691A680D
:10D09000164B1B689A420DD07B685A687B691B68E7
:10D0A0005B681A447B685A607B691B681A687B68F6
:10D0B0001A6008E00D4B1A687B681A6003E07B6910
:10D0C0001A687B681A607A697B689A4202D07B6929
:10D0D0007A681A6000BF1C37BD465DF8047B704754
:10D0E000C4410020C4010020C3410020CC410020E5
:10D0F00080B586B000AF786000233B610023FB6001
:10D100004FF0FF33BB60FBF737FC224B1B687B61A2
:10D110007B69002B1BD015E03B6901333B617B69C8
:10D120005B68FA689A4202D27B695B68FB607B6944
:10D130005B68BA689A4202D97B695B68BB607B69AD
:10D140001B687B61144B1B687A699A42E4D1FBF738
:10D1500021FC7B68FA685A607B68BA689A607B68D1
:10D160003A69DA60FFF7CAFB0C4B1A687B681A60F1
:10D170000B4B1A687B685A610A4B1A687B689A6184
:10D18000094B1A687B681A61FFF7EAFB00BF183782
:10D19000BD4680BDC4410020CC410020D0410020CC
:10D1A000D8410020DC410020D441002080B400AFF1
:10D1B000094B00221A60094B00221A60084B00221A
:10D1C0001A60084B00221A60074B00221A6000BF49
:10D1D000BD465DF8047B7047CC410020D041002063
:10D1E000D4410020D8410020DC41002081617047FB
:10D1F000436901EA030221EA030141EA0241816134
:10D2000070472DE9F0410568C46800264FF0030E11
:10D2100043FA06F7FF070DD577000EFA07FC01FA6F
:10D2200007F825EA0C0524EA0C0402FA07F748EA95
:10D2300005053C430136102EEAD10560C460BDE807
:10D24000F081F0B5066A456A00234FF00F0C42FAF0
:10D2500003F4E70707D59C000CFA04F726EA070653
:10D2600001FA04F426430133082BF0D100234FF0D8
:10D270000F0C03F1080442FA04F4E40707D59C00FC
:10D280000CFA04F725EA070501FA04F425430133F3
:10D29000082BEED106624562F0BD430903F18043DD
:10D2A00003F50E3300F01F001968012282400A4383
:10D2B0001A60704706282BD8DFE800F0041E240A05
:10D2C00010161A00134BD3F80008C0F340607047E3
:10D2D000104BD3F80008C0F3404070470D4BD3F813
:10D2E0000008C0F3400070470A4BD3F87008F8E715
:10D2F000084BD3F87408F4E7064BD3F80008C0F3E2
:10D3000040707047034BD3F80008C0F3C06070470B
:10D31000002070470030024008B502461046FFF773
:10D32000C9FF0028FAD008BD06280CD8DFE800F0B5
:10D3300004282E0C12182000174AD2F8003843F0A7
:10D340008073C2F800387047134AD2F8003843F4AB
:10D350008033F6E7104AD2F8003843F00103F0E7D3
:10D360000D4AD2F8703843F00103C2F870387047A4
:10D37000094AD2F8743843F00103C2F87438704790
:10D38000054AD2F8003843F08053DAE7024AD2F86F
:10D39000003843F08063D4E70030024006280CD800
:10D3A000DFE800F004282E0C12182000174AD2F8EB
:10D3B000003823F08073C2F800387047134AD2F85F
:10D3C000003823F48033F6E7104AD2F8003823F00F
:10D3D0000103F0E70D4AD2F8703823F00103C2F8D8
:10D3E00070387047094AD2F8743823F00103C2F844
:10D3F00074387047054AD2F8003823F08053DAE7D2
:10D40000024AD2F8003823F08063D4E700300240AB
:10D41000044AD2F8083823F003030343C2F808385B
:10D42000704700BF00300240044AD2F8083823F4A5
:10D43000604343EA4033C2F8083870470030024086
:10D44000044AD2F8083823F4E05343EA8023C2F8B0
:10D450000838704700300240044AD2F8083823F0F8
:10D46000F00343EA0013C2F8083870470030024066
:10D4700010B547F6C07404EA811400F03F001B06A3
:10D4800003F0706304431C43029B5208022B02F119
:10D49000FF324FEA024238BF022302F440321B0738
