:020000040800F2
:100000000000022001010008F9000008F9000008C2
:10001000F9000008F9000008F900000800000000DD
:10002000000000000000000000000000F9000008CF
:10003000F900000800000000F90000087500000841
:1000400080B584B000AF064BFB60FB681B68BB60EB
:10005000BB687B607B68984700BF1037BD4680BD9A
:100060000480000880B500AFFFF7EAFF00231846C0
:1000700080BD00BF80B400AF064BD3E90023501C05
:1000800043F10001034BC3E9000100BFBD465DF829
:10009000047B70471000002080B500AF024800F0DC
:1000A0007FF900BF80BD00BF8005000880B500AFAC
:1000B00005494FF47A7000F0EFF900F010FA00F003
:1000C00007FA00BF80BD00BF00BD010580B400AFCE
:1000D000044BD3E9002310461946BD465DF8047B66
:1000E000704700BF1000002080B500AFFFF7D4FFBD
:1000F000FFF7DCFF00BF80BD80B400AF00BFFDE7AD
:1001000080B582B000AF104B7B60104B3B6007E0C6
:100110007A68131D7B603B68191D396012681A608C
:100120003B680B4A9342F3D30A4B3B6004E03B68C5
:100130001A1D3A6000221A603B68074A9342F6D3C0
:10014000FFF790FF00BFFDE7F0050008000000206A
:100150000C000020100000201800002006282BD8DA
:10016000DFE800F0041E240A10161A00134BD3F81F
:100170000008C0F340607047104BD3F80008C0F38C
:10018000404070470D4BD3F80008C0F34000704763
:100190000A4BD3F87008F8E7084BD3F87408F4E773
:1001A000064BD3F80008C0F340707047034BD3F8F8
:1001B0000008C0F3C0607047002070470030024064
:1001C00008B502461046FFF7C9FF0028FAD008BD5F
:1001D00006280CD8DFE800F004282E0C12182000A6
:1001E000174AD2F8003843F08073C2F800387047DD
:1001F000134AD2F8003843F48033F6E7104AD2F8B5
:10020000003843F00103F0E70D4AD2F8703843F0AC
:100210000103C2F870387047094AD2F8743843F0C5
:100220000103C2F874387047054AD2F8003843F029
:100230008053DAE7024AD2F8003843F08063D4E70B
:100240000030024006280CD8DFE800F004282E0C0D
:1002500012182000174AD2F8003823F08073C2F831
:1002600000387047134AD2F8003823F48033F6E799
:10027000104AD2F8003823F00103F0E70D4AD2F813
:10028000703823F00103C2F870387047094AD2F879
:10029000743823F00103C2F874387047054AD2F865
:1002A000003823F08053DAE7024AD2F8003823F00E
:1002B0008063D4E700300240044AD2F8083823F0C3
:1002C00003030343C2F80838704700BF0030024000
:1002D000044AD2F8083823F4604343EA4033C2F8B2
:1002E0000838704700300240044AD2F8083823F436
:1002F000E05343EA8023C2F80838704700300240D8
:10030000044AD2F8083823F0F00343EA0013C2F895
:10031000083870470030024010B547F6C07404EA50
:10032000811400F03F001B0603F0706304431C437C
:10033000029B5208022B02F1FF324FEA024238BF01
:10034000022302F440321B0703F0E04314431C4332
:10035000014BC3F8044810BD0030024010B5029CA8
:10036000022C38BF022424071B0603F0706304F03C
:10037000E04452081C4300F03F0047F6C073013AC6
:1003800003EA8113044312041C4302F44032034B7A
:10039000144344F48004C3F8044810BD0030024004
:1003A00073B504460420FFF713FFFFF709FF002091
:1003B000FFF782FFE379012B04D10320FFF708FF49
:1003C000FFF7FEFE40F61C0000F0CCF8E07B00F0EA
:1003D000C1F8207BFFF794FF607BFFF785FFA07BD0
:1003E000FFF776FF0020FFF72DFFE679A57920784B
:1003F0006188227963790095012E2FD1FFF7AEFF36
:100400000020FFF7E5FEFFF7DBFEA3685A0528D5BD
:1004100000F078F8A3689B0526D500F087F8A0685F
:1004200000F064F80220FFF747FF124AD2F80838BC
:1004300003F00C03082BF9D10F4B22691A600F4B04
:1004400062691A600E4BA2691A60E379012B0ED122
:10045000042002B0BDE87040FFF7F4BEFFF75CFF78
:10046000CEE700F059F8D5E700F06AF8D7E702B018
:1004700070BD00BF003002400800002004000020D2
:10048000000000204FF0E02200F00400136923F088
:10049000040303431361704708B5B1FBF0F10B4B44
:1004A000994210D86FF07F43994226BFC9080020B7
:1004B0000420FFF7E7FF01394FF0E02321F07F41EF
:1004C0005961012008BD0020FCE700BFF7FFFF07CE
:1004D0004FF0E022136943F00203136170474FF0BD
:1004E000E022136943F0010313617047044AD2F814
:1004F000003C23F00F030343C2F8003C704700BFE9
:1005000000300240034AD2F8003C43F48063C2F852
:10051000003C704700300240034AD2F8003C23F40C
:100520008063C2F8003C704700300240034AD2F8B2
:10053000003C43F40073C2F8003C704700300240B6
:10054000034AD2F8003C23F40073C2F8003C704721
:1005500000300240024A136860F38F331360704723
:1005600000700040430903F1804303F50E3300F0AF
:100570001F001968012282400A431A607047000078
:1005800010005001040700000206000000040003F0
:1005900000BD010580DE800200BD0105080060008D
:1005A00002040000030600000004000300D8B805A0
:1005B000006CDC0200D8B8051000500102070000F2
:1005C0000506000000050403007A030A80DE8002AD
:1005D00000BD0105100068010208000005060000CA
:1005E000000504030095BA0A40A5AE02804A5D05E5
:0C05F0000024F4000024F4000024F400B7
:0400000508000101ED
:00000001FF
